:020000020000FC
:040000000C9432002A
:1000600000EC05BFC0E0D1E000E603500DBF01E0A9
:1000700000400EBF0E94DD00002309F424D0E0E020
:10008000F0E000E010E00E94210BE0E0F0E000E092
:1000900010E040E050E00E94130BE2E7F3E005E5DA
:1000A00012E00E94210BE6E5F1E000E613E042E1F8
:1000B00050E00E94130BE0E0F0E000E010E040E0D0
:0A00C00050E00E94130B0C945D0643
:0401BA0001E00895C3
:1001BE00001F1795001F1795001F1795001F179505
:1001CE00001F1795001F1795001F1795001F1795F5
:0401DE00012F089550
:1001E20028813981622F732F21503040672BD9F03B
:1001F200E02FF12F6081E42FF52FC895601571F083
:10020200E02FF12F0081E42FF52FC895001618F486
:1002120001E010E00AC00FEF1FEF07C00F5F1F4F92
:100222004F5F5F4FDFCF002711272296089505D039
:100232000F5F1F4F008311830895E82FF92F00816C
:10024200118108959A938A938A819B81282F392F4D
:100252000197232B59F0E42FF52F4F5F5F4FC8957D
:10026200E02FF12F01920E2F1F2FF0CF899199913C
:1002720022960895E02FF12FC895002031F0C895FD
:10028200041629F00F5F1F4FF5CF0027112708959D
:100292000E94330B442E552E8E819F81202F212BBD
:1002A20021F0E82FF92F00831183C7DF012B41F0E2
:1002B2002BD021F020D011F0BADFFACF25D019F4DB
:1002C2000027112715C0E82FF92FA081B1811CD07A
:1002D20069F011D011F4ABDFFACF0027E82FF92F24
:1002E20020813181E22FF32F0083A1DF0A2F1B2F00
:1002F200E8E00C94440BA1DFE02FF12F4081042DA4
:10030200152DB8DF012B089598DFE02FF12F008122
:040312000023089527
:100316000E94350B802F912FB52F042F0E94DF00EE
:100326001FEF1ABB14BBF89412B31F79192B12BB1B
:1003360018B3137E182B18BB94980BBBB5BB949AB5
:10034600000003D0E4E00C94460B959A969A7894B4
:1003560000270ABB04BB0BBB05BB08958A93222763
:100366002ABB24BB2BBB25BBF89442B34F79412B48
:1003760042BB28B3237E202B28BBC1980000C19A1C
:1003860029B383B3E2DF022F0E94DF00182F899181
:020396000895C8
:10039800000F111F221F331F35D00150104020407D
:1003A8003040452B462B472B11F00000F5CF089520
:1003B800662777270E94860A742E7394082F192FB0
:1003C8002A2F3B2FE42D43815481662777270E94EB
:1003D800860AE42D1AD00E94860A642EE42D038131
:1003E800148111D00E94610A15D0082F192F2A2FC5
:1003F8003B2F0E94860A402E512E062D0F70005664
:10040800602E089507C02227332742815527662783
:1004180077270895402F512F622F732F08950DD0FD
:10042800442021F012D011F4002704C01ED000305F
:10043800BCF301E0E5E00C94450B0E94340B402E20
:1004480080EE93E9A4E0B0E0089581509040A04088
:10045800B040082F092B0A2B0B2B089550E00CE114
:1004680008D001E009D0002308950CE110E40C94B1
:10047800B10110E40C948B01E0DF442021F0E5DFAA
:1004880011F4002704C0F1DF03FFF7CF01E0E5E036
:100498000C94450BEADF00FF02C001E00895002735
:1004A80008951DD0C0F0E42DF52D01850030042FEE
:1004B8003CF0152F262F372F4381548179DF01C057
:1004C8001ED028D041F02ED041E2C8DF21F043D021
:1004D80011F401E001C00027E8E00C94420B0E94EF
:1004E800310B402E512E842F952FA62FB72FE02F9A
:1004F800F12F34D004171507260737070895702EF3
:10050800492E5A2E6B2E0FE0602200EE600E0895E1
:10051800A02FB12F08E010E40E94B10101E07FDFB5
:1005280000230895409160035527460D551F04E1A7
:10053800A0DF41E050E004E09CDF472D55270CE0A8
:1005480098DF442D552700E194DF452D50E008E160
:1005580010E40C948B019EDF002308950581168119
:10056800278130850895BBDFC8F0E42DF52D01857E
:1005780006FD14C0E42DF52D01850030082F3CF050
:10058800192F2A2F3B2F4381548112DF01C0B7DF77
:10059800C1DF21F0C7DF41E361DF11F4002701C0AB
:1005A80001E0E8E00C94420B082F192F2A2F3B2F6B
:1005B80042E00C947D0A0E94350B802F912F2BD09E
:1005C800A0E0B1E0E02FF12F218526FF0EC0222701
:1005D80033273A932A937A936A935A934A93402FEC
:1005E800512F082F192FA4D113C05BDF002379F0F6
:1005F8000A2F1B2F1197012B41F01AD0E82FF92F42
:10060800019311938E2F9F2FF3CF01E001C0002794
:10061800E8E00C94460B042F152F4C815D816E8108
:100628007F8108954427552700E010E40C948B013E
:1006380000E01CCF00E010E40C94B1010E94350BDF
:10064800A02FB12FE8DF80E091E0E02FF12F218586
:1006580026FD12C088DF002379F0082F192F019793
:10066800012B21F04D915D91DFDFF7CF09D021F00B
:1006780072DF11F401E001C00027E8E00C94460B9A
:1006880001E04DCF0E94330B43DF09F493C096D0AD
:100698004CEEE4DE09F48EC05EDF09F08BC00AEC94
:1006A80010E00E94FC074424552401E0501608F08D
:1006B80045C0BEDF802F912F8AD02296092F87D080
:1006C8002296042D152DE8E6F1E00C94C70AEA2FCE
:1006D800FB2F808391832EC0EA2FFB2F82832AC0B1
:1006E800EA2FFB2F8383948325C091FF23C0EA2F31
:1006F800FB2F0185006801871DC0EA2FFB2F0185AC
:100708000030C4F42227858396832783208712C06C
:10071800EA2FFB2F018500306CF4112745815681A3
:1007280067817085410F511F681F791F4583568364
:10073800678370870FEF401A500AB7CF02EE10E0B8
:100748000E94FC07EA2FFB2F01850030A4F00081EE
:10075800118159DE0E94610AEA2F4381548166277C
:1007680077270E94610AEA2F39D0F8DE015010403D
:100778002040304033D004EE10E00E94FC07EA2FFE
:10078800FB2F028111271A930A9308EE10E02BD051
:10079800008111811A930A930FEE10E024D003818F
:1007A80014811A930A9306EF10E00E94FC07229620
:1007B80001E001C00027E6E00C94440B409160037F
:1007C800552740565F4F04E110E40C948B01112724
:1007D8001A930A930CED10E00C94FC07058316831A
:1007E8002783308708950E94FC072296EA2FFB2F63
:1007F800089590DE11F400270895E0DF4CE050E002
:1008080000E1E2DF4427552708E1DEDF44275527CA
:1008180008E0DADF4427552704E0D6DF44275527C8
:100828000CE0D2DF4427552700E1CEDF48E050E056
:1008380008E1CADF40EA12DE11F40027089520DF3C
:1008480011F40027089501E008950E942B0BA02EB3
:10085800B12E442E552E662E772E88889988AE851F
:10086800BF850DEF10E00E94FC07CC2404E0D02ED9
:10087800C0DF002309F457C048EA50E0D5DE472D11
:10088800562DD2DE452D542DCFDECCDE40E051E092
:10089800CBDEC8DE01E011E00E94FC070027F1DE94
:1008A80009F441C005E011E00E94FC070027E4DDDF
:1008B8000023C9F109E011E00E94FC074CDE99F51C
:1008C8002C2D3D2D0FEFC00ED01E232B21F1B0DEB5
:1008D800802F912F0A2F0B2B11F011970BC0082D89
:1008E800092941F00FEF800E901EEA2DFB2D819310
:1008F800AE2EBF2E0A2F0B2B11F01197E1CF082D2A
:100908000929F1F20FEF800E901EEA2DFB2D91932D
:10091800AE2EBF2ED5CF0BD021F08ADE08D0E9F756
:1009280002C001E001C00027E2E10C943C0B99CD24
:100938000E94310B602E712E4C845D8488859985C8
:10094800AA85BB85E42FF52F018506FF58C006DE72
:1009580080179107A207B30708F051C001E04016BD
:1009680002E0500608F04BC0042D0529B9F1082F04
:1009780003701127222733270330104020403040CE
:1009880069F512DE802F912FA22FB32F00E012E01D
:10099800041915091A930A93042D152D1A5F1A9331
:1009A8000A93482F592F622F732F2FD009F427C08D
:1009B8008F5F9F4FAF4FBF4F5A924A920027112720
:1009C8001A930A93482F592F6A2F7B2F641875089A
:1009D800600E02E0701E19D0A1F411C000E012E010
:1009E8001A930A93082F0370102F0027110F040D74
:1009F800151D1A930A93D8DD05DD07D011F40027D9
:100A080001C001E0EEE00C94420B062D172D1DDF0E
:100A1800002308959A938A931A930A93842FE9DE00
:100A2800002379F04BE151E0FFDDFCDD482F50E079
:100A3800FBDDF8DDF7DDF6DD002723DE11F08BDDC9
:100A480011F0002701C001E022968991999108953B
:100A58009A938A93802F912F0027089542E0DACF46
:100A680043E0D8CF0E94350B53DD81F1A7DE41EA80
:100A7800F5DC61F170DD51F5882799279130B0F4E4
:100A8800D7DD282F392F2050304021F02153304016
:100A980021F00AC0103044F019C011FF17C0EA2F26
:100AA800FB2F0185006801870196E8CFEA2FFB2F0D
:100AB80001850064018700E811E327E130E08EDE5C
:100AC8000DE011E00E94FC0701E001C00027E4E00E
:100AD8000C94460B0E94310B402E512E642E752E1D
:100AE80088DE002341F143E050E09EDD9BDD42E1DA
:100AF80050E09ADD97DD96DD95DDC2DDE1F017DF88
:100B0800D1F029DDC1F4AA27BB27EA2FFB2F39979B
:100B180080F48EDD802F912F0A2F1B2F0650104056
:100B280031F4E42DF52D8083E62DF72D9083119671
:100B3800ECCF01E001C00027E8E00C94420B2297BB
:100B4800E02FF12F018506FF12C04C2F5D2F4F5F5C
:100B58005F4F0C2F1D2FBEDF002349F00881E2E80C
:100B6800F1E00C94C30A01E003C0002701C002E0D1
:100B7800229608956DDFE82FF12F00830183028309
:100B8800038304830583068307830087018701E1C4
:100B980011E00E94FC07082F192F64DF0023082F9B
:100BA800192F41F05DDF082F192FC9DF0130D9F760
:100BB80002E006C067DD002311F001E001C0002754
:100BC800899199910895FADD4EE050E004E110E230
:100BD8000E948B010AE010E020E030E0D9DB4AE017
:100BE80050E004E110E20E948B0100E211EA27E0E4
:100BF80030E0CEDB01E013DC04E111E00C94FC07EB
:100C0800003111F0002321F40093600301E00895FE
:100C1800002708950091600308951ADF0ABB04BBFA
:100C28000BBB05BBBA9ABB9ABC9AC29AC39AC49A20
:100C38008D9A8E9A959A969AB99A8C9AC19A949AFC
:0E0C4800C2DF082F192F96DF89919991089528
:1000CA000A4944454E544946592044524956453AEC
:1000DA000A002530325820000A000A4844000A2043
:1000EA00483D2569000A20433D2569000A20533D01
:1000FA002569000A5231000A5232000A5233000AB4
:0D010A005234000A4344000A47000A520024
:100168000000019E039E03016B03027003037403E6
:100178002B79030B8103018C03FB0001BB05B70539
:1001880002BB0502BB0524BB0501BB0511B905C5AA
:03019800BB05FBA9
:0101560000A8
:100C5600E02FF12F00810895E02FF12F0081112759
:100C66000895E02FF12F008111810895E02FF12FD3
:100C760020810181122F0895F4CFF3CF402F512FF9
:100C8600E02FF12F0081302F22271127E42FF52F97
:100C96000180322E202D33290280312E102D33294A
:100CA6004381042F0895E02FF12F008111812281C5
:040CB60033810895E9
:100CBA009A938A930E94FB06789407E111E00E94B6
:100CCA00FC0702E713E00E941106002309F473C02F
:100CDA000A9509F46DC00A9509F070C00DE111E09A
:100CEA000E94FC0700E012E01A930A9344270CE7DB
:100CFA0013E00E94CD09002711271A930A9300E4F2
:100D0A0020E030E03A932A931A930A9342E753E099
:100D1A000CE713E00E949C04002309F446C001E298
:100D2A0011E00E94FC0704E211E00E94FC07002780
:100D3A00112700937C0500937D051150B8F4E02F2C
:100D4A00F0917D05E458FC4F008111271A930A930C
:100D5A0006E211E00E94FC072296ECE7F5E000812A
:100D6A0011810F5F1F4F00831183E7CF04E211E067
:100D7A000E94FC070CE713E00E942B06013011F5D4
:100D8A0009E211E00E94FC0705E010E01A930A93B9
:100D9A004CE251E00CE713E00F5F1F4F0E94F10095
:100DAA00012B81F402E311E00BC007E311E008C054
:100DBA000EE311E005C003E411E002C009E411E00A
:100DCA000E94FC0700E511E00E94FC070E94EE0663
:020DDA00FDCF4B
:100117000A496E6974000A4344000A53000A00251D
:1001270063000A50004344303031000A49534F00FE
:100137000A4552522031000A484444000A4E4F4EA5
:0F01470045000A4552522032000A446F6E65008F
:100DDC000091860510918705012708950FD00027F3
:100DEC0000938705009386050BC0909A07E109B91B
:100DFC0008E90AB9F3CF00270AB908955498089561
:100E0C00549A08951091860513951770E12FFF27BA
:100E1C00E258FA4F00811093860508955D9BFECF32
:100E2C000CB908950A931A93EA93FA93FFB7FA93BD
:100E3C000CB1E0918705E395E77010918605E117F9
:100E4C0031F0E0938705FF27E258FA4F0083F991C0
:0C0E5C00FFBFF991E991199109911895D7
:040034000C94180709
:100E680020918A0530918B05232B69F0EAE8F5E09B
:100E780020812F5F3F4F2083318321503040E22F64
:100E8800F32F008308950C9414070E94320BA02FAF
:100E9800B12F442E6F8055246620E1F00E94E008AF
:100EA800802F912F042D11278415950598F4081B80
:100EB800190B802F912FEA2FFB2F0081002351F06F
:100EC800082F192F0197012B29F0062DC9DF4A9405
:100ED8005394F1CFEA2FFB2F0081002341F0042D1A
:100EE8004A94002321F00D91BBDF5394F3CF052DD5
:100EF800E8E00C94430B0E94310B602E712E4424C1
:100F080055245ED0882309F456C0853209F04DC0B7
:100F180081916E2E7F2EAA27803311F0803211F432
:100F2800A82F4ED09FEF082F0E94C509002379F003
:100F38009927082F0E94C509002349F08F70092FAF
:100F48004AE00E94310A982F900F3AD0F2CF082F2A
:100F5800EBE9F1E00C94C30A39D040D00E94700844
:100F680006C034D06D917D9139D00E948A08492FEE
:100F780012C000270A9337D04D915D912FD00E945F
:100F8800350842E008C000270A93492F2CD00D915C
:100F98001D91A083B18379DF1127400E511EB1CF77
:100FA80022D08D919D91A083B183082F59DF0FEF37
:100FB800401A500AA6CF042D152DE8E00C94420BD8
:100FC800E62DF72D81916E2E7F2E0895AA93E8E8DD
:100FD800F5E0A081B1814D915D910895A083B18321
:100FE8000CE815E00895E8E8F5E0A081B1810895DE
:100FF8002EE130E03A932A93402F512F06E915E06D
:101008000E942301002700938A0500938B05C09353
:0C1018008805D093890506E915E06DCF2E
:10019B0025018507D90733BD070BD40701B0070528
:0F01AB00B00703B50707C70702B00703BD07FB7F
:101024000E94350BA02FB12F00271127EA2FFB2F89
:101034002081222379F08D9180538A3018F0002783
:10104400112708C04AE050E00E943B0A9927080F84
:10105400191FECCFE4E00C94460B082F192F4AE03B
:1010640050E00C944B0AE42FE295EF7008D02083F3
:101074004F70E42F04D02183222722830895FF2771
:10108400EF59FC4F2081E02FF12F0895332722E000
:10109400E02FF12F40814423F9F0422F2A95442375
:1010A400D9F041910E2F1F2F403320F04A3310F412
:1010B40040530EC0413420F0473410F4475308C065
:1010C400413620F0473610F4475502C000270895F2
:1010D4003295307F340FDCCF032F08950E94330BF9
:1010E400402E512E842F952FAEEBB5E000270E93A2
:1010F400B4DF405D4E93B1DF802F912F012BC1F7F8
:101104004A2F5B2F042D152D37D0E6E00C94440BA9
:101114000E94310B602E712E842F952FA62FB72F8E
:1011240003EC402E05E0502E0027E42DF52D02930C
:101134004E2E5F2E17D0405DE42DF52D42934E2E9A
:101144005F2E10D0802F912FA22FB32F012B022BB3
:10115400032B81F7442D5F2F062D172D0DD0E8E0CA
:101164000C94420B082F192F2A2F3B2F4AE050E0F2
:1011740060E070E00C94860A2FEF3FEF3A932A93D5
:1011840068817981202F312FE42FF52F00800020F2
:1011940079F0062E172E61507040012849F0019015
:1011A4004E2F5F2FE22FF32F01922E2F3F2FECCFE4
:1011B4004427E22FF32F4083229608959A938A932B
:1011C40088279927E02FF12F21910E2F1F2F2223FB
:1011D40011F00196F7CF082F192F8991999108954D
:1011E400E02FF12F2081222331F02081241729F0D0
:1011F4000F5F1F4FF5CF002711270895E5ECF5E0A9
:10120400008111810F5F1F4F00831183089531D036
:10121400042F052B21F04093C3055093C40500917E
:10122400C3051091C405012B11F400271FC04C8184
:101234000091C305D5DFA02FB12F2091C3053091B4
:10124400C405021B130B1A930A93422F532F082F22
:10125400192F96DF0A2F0B2B11F0119602C0AA2723
:10126400BB27A093C305B093C40501E0E5E00C944B
:10127400460B0E94350B802F912F08950E94350B49
:10128400A42FB52F202F212B21F00093C5051093F7
:10129400C6050091C5051091C605012B71F0E091BA
:1012A400C505F12F0081002321F01DD011F0A6DF28
:1012B400F6CF1FD00081002319F40027112710C096
:1012C4008E2F9F2F16D00081002341F00CD011F4F3
:1012D40095DFF8CF00270DD0008390DF082F192F5A
:1012E400E4E00C94460B40810A2F1B2F79DF012B7D
:1012F4000895E091C505F091C6050895BADFA42FBD
:10130400B52FE82FF92F00810023A1F0EA2FFB2F3E
:101314000081002379F022D0011749F01FD0101763
:1013240018F401E010E017C00FEF1FEF14C001968E
:101334001196E7CF13D0011719F4002711270BC01A
:10134400E82FF92F0081002311F001E001C00FEF15
:10135400102F100F110BE4E00C94460BE82FF92F1B
:101364000081EA2FFB2F1081089583DFA42FB52F6E
:1013740025DF080F191F4A2F5B2FFEDE082F192FB8
:10138400E4E00C94460B003320F00A3310F401E03F
:101394000895002708959A938A938A819B81E02F68
:1013A400F12F282F392F0197232B11F04193F9CFD7
:1013B4008991999122960895042E402F152E512F2C
:1013C40008811981642F752F202D312D04161506DF
:1013D400D0F4002E112EEFEF0E0E1E1E600D711DA7
:1013E400002E112E0E0E1E1E200D311D20D0D9F000
:1013F400E22FF32F215030400080E62FF72F615069
:1014040070400082F3CF6217730768F410D059F06C
:10141400E22FF32F01902E2F3F2FE62FF72F01926B
:101424006E2F7F2FF3CF042F152F22960895002EB1
:10143400112E01501040012808952881322F2A9539
:10144400332359F0E42FF52F31914E2F5F2FE02FE6
:0E145400F12F31930E2F1F2FF1CF2196089507
:1001570030313233343536373839414243444546F6
:010167000097
:101462000024002329F0069508F4040E440FC9F75E
:04147200002D0895AC
:10147600002411240030010741F01695079510F459
:10148600040E151E440F551FF5CF002D112D08957E
:1014960000241124E0E1EA9552F0001F111F001C00
:1014A600111C04161506B8F3041A150AF4CF001F0A
:0C14B600111F402D512D00951095089538
:1014C2000024112422243324E02FE12BE22BE32BEE
:1014D20071F0369527951795079520F4040E151E81
:1014E200261E371E440F551F661F771FEDCF002D96
:0814F200112D222D332D089568
:1014FA004A9532F036952795179507950C947D0AEB
:02150A00089542
:10150C000024112422243324E0E2EA9592F0001FF7
:10151C00111F221F331F001C111C221C331C04160C
:10152C0015062606370688F3041A150A260A370A02
:10153C00ECCF001F111F221F331F402D512D622D88
:0C154C00732D00951095209530950895A2
:10155800C895702D3196C895602D3196C895502D37
:101568003196C895402D3196C8953196102C01FAC0
:10157800C8953196202CC8953196302C0895F1DF06
:10158800041B10E003C0EADF041B150B20E030E069
:1015980005C0DEDF041B150B260B370BC8F010FC4B
:1015A8001AC03AD0402D38D00417100588F446F4F4
:1015B800E00FF11FC895E22DF32DE019F0400994D2
:1015C800000F111FE00FF11F27D0202C25D0302C41
:1015D800E22DF32D099411F4BEF7ECCF31960EF0FD
:1015E800319650E060E070E017D0402D4B3F68F036
:1015F80079F34F3F41F04E3F21F00ED0702D0CD0C3
:10160800602D0AD0502D08D0402D041B150B260B39
:0E161800370B11F3E8F2E2CFC8953196089532
:10162600BF93AF93A02FB12F03C0C89531960D92EB
:0C16360041505040D0F7AF91BF91089593
:0E164200002401C0019201501040E0F708950D
:02165000000098
:10165200FA92EA92DA92CA92BA92AA929A928A92E8
:101662007A926A925A924A92BA93AA939A938A93D4
:021672000895D9
:10167400FF84EE84DD84CC84BB84AA84998488842A
:101684007F806E805D804C80BB81AA819981888136
:0E169400F0E00FB6F894CE0FDF1F0FBE0895E2
:00000001FF
