:020000020000FC
:040000000C9432002A
:1000600000EC05BFC0E0D1E000E603500DBF01E0A9
:1000700000400EBF0E945C04002309F424D0E0E09D
:10008000F0E000E010E00E945F30E0E0F0E000E02F
:1000900010E040E050E00E945130EAE7F3E003E76F
:1000A00013E00E945F30E3EDF6E000E613E04AE182
:1000B00050E00E945130E0E0F0E000E010E040E06D
:0A00C00050E00E9451300C94AF0490
:0408B80001E00895BE
:1008BC00001F1795001F1795001F1795001F179500
:1008CC00001F1795001F1795001F1795001F1795F0
:0408DC00012F08954B
:1008E0009A938A93802F0E943A0B0E946C2BE0E629
:1008F000F3E0112720813181280F311F20833183BC
:10090000E2E6F3E0992700811181080F191F0083A7
:100910001183899199910895209160033091610329
:100920000217130708F401D0089502B310E8012755
:1009300002BB002700936003009361030895222700
:100940002093620320936303209162033091630339
:1009500020173107C8F308950FE001BDFFCF0E94B3
:1009600015058F9A8B98839B0FC00E94440B002320
:1009700021F408EC10E0D0DFFCCFF8940E94CE09FF
:1009800078940E94E509FDCF9798002700936203B1
:100990000093630378948B98839B1AC0979A42D0F4
:1009A000979840D0979AF8940E94CE0978940E9424
:1009B0006B1C08E210E0B0DF8B988399FACF32D03D
:1009C0008B988399F6CF05EB13E00E944F1FC7CF9A
:1009D0000091620310916303083B1B40E0F2979A79
:1009E000F8940E9486210AE713E00E943909013039
:1009F00021F008EC10E090DFFCCFF8940E94652510
:100A00000AE713E00E945A2C78940E9411220E9457
:100A1000D42B0091600310916103053F1140A8F3AE
:0A0A200084DFF3CF04E610E08ACF74
:0903B5000A526573746172740050
:0406D3000000000023
:1000CA000A53494F32494445207665722E20342E10
:1000DA00342028632932303034204D4D536F6674F2
:1000EA0020666F722041544D454C2041546D65671E
:0600FA00613332330A00FD
:100A2A0007EB02BF05E003BF09B7016009BF0895DC
:100A3A0009B70E7F09BF0895F7CF0A921A922A9230
:100A4A003A920A931A932A933A934A935A936A9335
:100A5A007A93EA93FA93FFB7FA9305E00E94700437
:100A6A0007EB02BFF991FFBFF991E9917991699179
:100A7A00599149913991299119910991399029905E
:060A8A0019900990189577
:04002C000C94220509
:100A9000000F111F221F331F35D00150104020407E
:100AA0003040452B462B472B11F00000F5CF089521
:100AB000662777270E94B72F742E7394082F192F5B
:100AC0002A2F3B2FE42D43815481662777270E94EC
:100AD000B72FE42D1AD00E94B72F642EE42D038186
:100AE000148111D00E94892F15D0082F192F2A2F79
:100AF0003B2F0E94B72F402E512E062D0F7000560F
:100B0000602E089507C02227332742815527662784
:100B100077270895402F512F622F732F08950DD0FE
:100B2000442021F012D011F4002704C01BD0003063
:100B3000BCF301E0E5E00C9483300E947230402E5B
:100B400080EE93E9A4E0B0E0089581509040A04089
:100B5000B040082F092B0A2B0B2B089550E00CE115
:100B600005D007C00CE110E40C94790910E40C9452
:100B7000530901E002D000230895DFDF442021F073
:100B8000E4DF11F4002704C0EDDF03FFF7CF01E03D
:100B9000E5E00C948330E6DF00FF02C001E0089539
:100BA000002708951DD0C0F0E42DF52D01850030FB
:100BB000042F3CF0152F262F372F4381548178DFE7
:100BC00001C01ED028D041F02ED041E2C7DF21F075
:100BD00043D011F401E001C00027E8E00C9480301C
:100BE0000E946F30402E512E842F952FA62FB72FA5
:100BF000E02FF12F34D00417150726073707089583
:100C0000702E492E5A2E6B2E0FE0602200EE600EE1
:100C10000895A02FB12F08E010E40E94790901E0A7
:100C20007EDF00230895409164035527460D551F2C
:100C300004E19CDF41E050E004E098DF472D5527B8
:100C40000CE094DF442D552700E190DF452D50E066
:100C500008E110E40C9453099EDF002308950581F8
:100C60001681278130850895BBDFC8F0E42DF52D6E
:100C7000018506FD14C0E42DF52D01850030082FF7
:100C80003CF0192F2A2F3B2F4381548111DF01C0E3
:100C9000B7DFC1DF21F0C7DF41E360DF11F40027D8
:100CA00001C001E0E8E00C948030082F192F2A2FB2
:100CB0003B2F42E00C94AE2F0E947330802F912F77
:100CC0002BD0A0E0B1E0E02FF12F218526FF0EC050
:100CD000222733273A932A937A936A935A934A9313
:100CE000402F512F082F192F5BD113C05BDF00233A
:100CF00079F00A2F1B2F1197012B41F01AD0E82F02
:100D0000F92F019311938E2F9F2FF3CF01E001C094
:100D10000027E8E00C948430042F152F4C815D816E
:100D20006E817F8108954427552700E010E40C94DC
:100D3000530900E018CF00E010E40C9479090E94F8
:100D40007330A02FB12FE8DF80E091E0E02FF12F8A
:100D5000218526FD12C088DF002379F0082F192F86
:100D60000197012B21F04D915D91DFDFF7CF09D085
:100D700021F072DF11F401E001C00027E8E00C94DB
:100D800084304DCF0E94713044DF09F469C06CD0CB
:100D90004CEEE4DE09F464C05FDF09F061C0442476
:100DA000552401E0501608F040C0C3DF802F912F7A
:100DB000042D152DEDEEF6E00C94F82FEA2FFB2F05
:100DC000808391832EC0EA2FFB2F82832AC0EA2FD3
:100DD000FB2F8383948325C091FF23C0EA2FFB2F31
:100DE0000185006801871DC0EA2FFB2F01850030B7
:100DF000C4F42227858396832783208712C0EA2F95
:100E0000FB2F018500306CF41127458156816781E5
:100E10007085410F511F681F791F45835683678373
:100E200070870FEF401A500ABCCFEA2FFB2F0185C5
:100E30000030A4F00081118166DE0E94892FEA2F24
:100E400043815481662777270E94892FEA2F15D086
:100E500006DF01501040204030400FD001E001C0BB
:100E60000027E6E00C9482304091640355274056F9
:100E70005F4F04E110E40C94530905831683278324
:100E800030870895C8DE11F400270895EDDF4CE0A7
:100E900050E000E1EFDF4427552708E1EBDF44276E
:100EA000552708E0E7DF4427552704E0E3DF442720
:100EB00055270CE0DFDF4427552700E1DBDF48E062
:100EC00050E008E1D7DF40EA49DE11F40027089539
:100ED00058DF11F40027089501E008950E94693059
:100EE000A02EB12E442E552E662E772E88889988F6
:100EF000AE85BF85CC2404E0D02EC4DF002309F4E6
:100F00004BC048EA50E011DF472D562D0EDF452D2E
:100F1000542D0BDF08DF40E051E007DF04DF00273E
:100F2000FEDD0023C9F1002728DE0023A9F194DEAD
:100F300099F52C2D3D2D0FEFC00ED01E232B21F146
:100F4000F8DE802F912F0A2F0B2B11F011970BC079
:100F5000082D092941F00FEF800E901EEA2DFB2D80
:100F60008193AE2EBF2E0A2F0B2B11F01197E1CFDC
:100F7000082D0929F1F20FEF800E901EEA2DFB2DAE
:100F80009193AE2EBF2ED5CFF4DD21F0D2DEF1DD70
:100F9000E9F702C001E001C00027E2E10C947A30D9
:100FA0000E946F30602E712E4C845D8488859985F7
:100FB000AA85BB85E42FF52F018506FF58C04FDEBB
:100FC00080179107A207B30708F051C001E040164F
:100FD00002E0500608F04BC0042D0529B9F1082F96
:100FE0000370112722273327033010402040304060
:100FF00069F55BDE802F912FA22FB32F00E012E066
:10100000041915091A930A93042D152D1A5F1A93C2
:101010000A93482F592F622F732F2FD009F427C01E
:101020008F5F9F4FAF4FBF4F5A924A9200271127B1
:101030001A930A93482F592F6A2F7B2F641875082B
:10104000600E02E0701E19D0A1F411C000E012E0A1
:101050001A930A93082F0370102F0027110F040D05
:10106000151D1A930A9321DE4DDD07D011F40027D8
:1010700001C001E0EEE00C948030062D172D2EDF2C
:10108000002308959A938A931A930A93842FFADE81
:10109000002381F04BE151E048DE45DE482F50E06F
:1010A00044DE41DE40DE3FDE002739DD002311F063
:1010B000D3DD11F0002701C001E0229689919991BA
:1010C00008959A938A93802F912F0027089542E0E4
:1010D000D9CF43E0D7CF0E9473309BDD61F1C4DEEE
:1010E00041EA3CDD41F1B8DD31F58827992791309F
:1010F000B0F41FDE282F392F2050304021F021532B
:10110000304021F00AC0103044F015C011FF13C068
:10111000EA2FFB2F0185006801870196E8CFEA2FAF
:10112000FB2F01850064018700E811E327E130E02F
:10113000A4DE01E001C00027E4E00C9484300E94AA
:101140006F30402E512E642E752E9CDE002341F10F
:1011500043E050E0EADDE7DD42E150E0E6DDE3DDDB
:10116000E2DDE1DD0EDEE1F004DDD1F075DDC1F49C
:10117000AA27BB27EA2FFB2F399780F4DADD802FCF
:10118000912F0A2F1B2F0650104031F4E42DF52D1E
:101190008083E62DF72D90831196ECCF01E001C0FE
:1011A0000027E8E00C9480302297E02FF12F018592
:1011B00006FF12C04C2F5D2F4F5F5F4F0C2F1D2F6E
:1011C000BEDF002349F00881E7E0F7E00C94F42F3C
:1011D00001E003C0002701C002E02296089571DFFC
:1011E000E82FF12F008301830283038304830583A7
:1011F0000683078300870187082F6DDF0023082FF0
:10120000192F41F066DF082F192FCEDF0130D9F7F3
:1012100002E006C0B7DD002311F001E001C00027A5
:1012200089919991089520DE4EE050E004E110E2AA
:101230000E9453090AE010E020E030E029DC4AE097
:1012400050E004E110E20E94530900E211EA27E0B5
:1012500030E01EDC01E063CC003111F0002321F40A
:101260000093640301E0089500270895009164034A
:10127000089527DF0ABB04BB0BBB05BBBA9ABB9A18
:10128000BC9AC29AC39AC49A8D9A8E9A959A969A43
:10129000B99A8C9AC19A949AC6DF082F192F9FDFAA
:0612A00089919991089567
:1006ED000000011107110701DE0602E30603E7060C
:1006FD002BEC060BF40601FF06FB0001EC08E808E5
:10070D0002EC0802EC0824EC0801EC0811EA08C51B
:03071D00EC08FBEA
:0106D7000022
:1012A6000E947330802F912FB52F042F0E945E0469
:1012B6001FEF1ABB14BBF89412B31F79192B12BB7C
:1012C60018B3137E182B18BB94980BBBB5BB949A16
:1012D600000003D0E4E00C948430959A969A7894B2
:1012E60000270ABB04BB0BBB05BB08958A932227C4
:1012F6002ABB24BB2BBB25BBF89442B34F79412BA9
:1013060042BB28B3237E202B28BBC1980000C19A7C
:1013160029B383B3E2DF022F0E945E04182F89915E
:02132600089528
:1013280009B1073119F408E009B9089507E109B9C5
:101338000895579800938603109387030027009316
:1013480084030093850300938803579A08958A932A
:10135800802F0E941D0580938B030E94210589918F
:1013680008958A930E941D0500918B03002311F0B4
:10137800882701C081E00E942105082F89910895DE
:101388000EEFE5DF04E010E0D4DF979A01E0009368
:1013980089030895909A07E109B908E90AB98A9872
:1013A800929AEECF000F111F202F312F01501040BD
:1013B800232B11F00000F8CF08955D9BFECF0CB9E8
:1013C80008950E947330A0E6B1E0CBDF002311F04E
:1013D800A7DFD6DFB0D0802F912F00918903E0E2FC
:1013E800F7E00C94F42F829B97C00EEFB0DFEA2F42
:1013F800FB2F41810A2F1B2F0E94590B002309F450
:101408008AC0002700938A03112746E050E00E9413
:101418003B2FE02FF12FE050FF4FC895002009F433
:1014280078C0EA2FFB2F0181001621F584D0E02F28
:10143800F12FEF5FFE4FC895202D3196C895022FEA
:101448000029C1F046E853E00A2F1B2FE22FF02DA8
:101458000995002379F06FD0E02FF12FED5FFE4F53
:10146800C89500928903009186031091870361DF74
:10147800979852C000918A030395C4CF4AC008ECDC
:1014880010E04DD0E9F15ED0D9F103E496DF07E032
:101498002EC036C035C00AEF10E084DF70D0F0F4FB
:1014A800E02FF12FE05AFE4F008187DFE09184039F
:1014B800F0918503E05AFE4F0080002D54D008F0CB
:1014C8000394022F000D00938803E4E8F3E0008101
:1014D80011810F5F1F4F00831183E0CF00918803B4
:1014E80019C03FD002E033DF01E467DF04E0009376
:1014F800890312C000ED17E012D011F023D021F4B7
:1015080005E408C02ED036D003E404C004EF11E08F
:1015180049DF0EE452DF34DFE4E00C94843042DF2C
:1015280029D0E82FF92FEC5FFE4FC895002D319692
:10153800C8950029089500918A03112746E050E0D4
:101548000C943B2F00E611E08C5F9E4FE82FF92F9B
:10155800C895202D3196C895E22FF02D09950023C6
:10156800089508EC0AC0112720918803020F111F63
:101578001150089501E421DF0AEF10E013CF009124
:101588008403109185032091860330918703021705
:10159800130708950A921A922A923A920A931A9372
:1015A8002A933A934A935A936A937A93EA93FA93CB
:1015B800FFB7FA938A938CB1829918C00091890376
:1015C8000130A1F450D048F43FD0082F08F003951B
:1015D800122F100F1093880309C000918803081771
:1015E80011F402E001C008E000938903829B1AC04D
:1015F800009189030430B1F436D040F425D008F0C6
:101608008395022F080F009388030CC00EEF9FDE0E
:1016180000918803081711F405E002C081DE09E093
:10162800009389038991F991FFBFF991E991799123
:101638006991599149913991299119910991399053
:101648002990199009901895E4E8F3E00F5F1F4F6F
:101658000083118301501040005A1E4FE02FF12FD4
:101668008083082F80CF02E072DE89CF00918B0340
:101678000E3F29F0002319F00A9500938B03089573
:100720000200900A0900F709750A900A7E0A430A36
:080730004F0A8F0A8A0A860AAB
:040034000C94CE0A50
:10168800BD98BE98C59AC69A8B9A939800270093DE
:101698008C030E94231C00238B9A939A11F4002731
:1016A800089501E000938C030895E02FF12F208125
:1016B800213711F4B59B07C0E02FF12F2081223785
:1016C80051F5B59B28C0413111F1423101F1463144
:1016D800F1F04331E1F04431D1F04531C1F0473107
:1016E800B1F04831A1F0493191F04A3181F04B31E4
:1016F80071F04C3161F04D3151F0413641F04236D4
:1017080031F0433621F0443611F0453611F401E04A
:10171800089500270895E02FF12F2081213318F034
:101728002081293310F000270895B69B07C0E02FC9
:10173800F12F2081213311F429E32083E02FF12FA9
:10174800008100530E946018012B11F001E00895F8
:1017580000270895E02FF12F2081205320938D0337
:101768002381028100938E0320938F0300918D03C0
:101778000E94601820918E0330918F03021713077F
:10178800089508D00CE00DD000918D030E946018D8
:10179800012B0895E02FF12F0081005300938D0352
:1017A800089510E0E42FF52F00831183089522D0C7
:1017B80031F0D0DF20F0022F132F032B11F4002774
:1017C80011C0E22FF12F319738F0E22FF12F349723
:1017D80018F400E810E001C015D0E82FF92F0083B5
:1017E800118301E08991999108959A938A93802FA2
:1017F800912F08C09A938A93842F952F20918C0358
:101808002223089500918D030C944D1802D00C9456
:10181800B21A1A930A9340918E0350918F03009144
:101828008D030895E7DF31F095DF20F0022F132FA5
:10183800032B11F4002711C0E22FF12F319738F054
:10184800E22FF12F349718F400E810E001C0DADF36
:10185800E82FF92F0083118301E089919991089568
:10186800D8DF0C94DD1996DF0ED009D0012B11F4C6
:101878000027089500918C0308958E2F9F2F0091C3
:101888008D030C94601804E08CCFAFDF003011405A
:1018980011F400E301C000E1E82FF92F01930FEFE5
:1018A800019300EE01930027008301E0899199914B
:1018B800089567DF11F40027089500918C030895B7
:1018C8009A938A93802F01E0E82FF12F019300E18A
:1018D8000193D3DFE82FF92F1193CFDFE82FF92FEA
:1018E8000193002701938E2F9F2F8CDF003011402A
:1018F80041F40CE0E82FF92F019301E00193002750
:1019080007C008E0E82FF92F01930027019300E8AA
:10191800019300E4019309E4019304E4019305E4CD
:10192800C3CF2FDF11F40027089500918C03089589
:101938009A938A93E02FF12F8281982F0381802F29
:101948009EDF0817190711F0002701C001E08991EF
:10195800999108959A938A93842F952F1BDF0E945B
:101968004D18E82FF92F0083118300811181012B75
:1019780011F4002702C000918C0389919991089570
:1019880034DF025010402FEFE82FF92F21932193D5
:10199800202F312F01501040232B09F486CF222706
:1019A800F6CF83CF1A930A9301E06EDF00918C0380
:1019B800229608952AE0E02FF12F208301E0089570
:1019C800E02FF12F028100938D030FE05DDF00917E
:1019D8008D030C94451802D00C940517402F512FF5
:1019E80000918D030895ECCFF9DF0C9454171A93E6
:1019F8000A930FE0DACF0C94D716F9CF0C94F516AA
:101A080021E030E0E42FF52F20833183E02FF12F00
:101A180002810C94101800E012E0C4DE00918C03DF
:101A280008952FEFE02FF12F208300918C03089564
:101A38001A930A9301E0B9CF2FEFE02FF12F2083FB
:101A48000C9474181A930A930AE0AFCF0E94E61810
:101A580001E008951A930A9304E0A7CF0E94EC18B6
:101A680001E00895C4CF0C947B16C1CF0C94931653
:101A7800BECF0C94A716BBCF0E94B11601E0089503
:101A8800B6CF9A938A93802F912F0E944A1B0023E6
:101A980039F0082F192F0E94B1160E94C61605CFDB
:101AA8000FE010E01A930A9344275527082F192F9F
:101AB8000E94CA30FACE1A930A930091F60506FFDF
:101AC80002C0002703C0DFDE00918C032296089530
:101AD800E02FF12F4081518162817381EDEEF5E0B5
:101AE80005811681278130850417150726073707D2
:101AF80010F4002701C001E0E0E9F3E040835183DE
:101B0800628373830895E0E9F3E040815181628143
:101B180073817A936A935A934A934DEE55E00895E8
:101B28001A930A930091F60506FF02C0002701C028
:101B380072DF22960895E7DF0C945C061A930A93E5
:101B48000091F60506FF02C0002701C064DF229657
:101B58000895D9DF0C949F061A930A9307E225CFBC
:101B6800402F512FE0E9F3E0008111812281338178
:101B78000C94FE185DCF0E947330A02FB12F0E94E5
:101B88003609802FEA2FFB2F0081801781F0008112
:101B98000E942C09002369F00E94231C002339F4B9
:101BA800082F0E942C090E94231C002311F001E039
:0A1BB80001C00027E4E00C94843023
:1001000053370C06490C50DB0B030A0C57DB0B036F
:100110000A0C52160C06340C4E5D0C06640C4F95FE
:100120000C039C0C21AE0C06C40C3FD60C06DE0C56
:1001300011E40C06EF0C12F70C03F80C13FB0C0681
:10014000FF0C14010D06020D161C0D06200D1504E2
:100150000D06150D17260D062A0D182E0D06320D4B
:1001600019360D06370D1A390D063A0D1B3C0D03D5
:100170003D0D1C3F0D06400D1D440D06450D615FF4
:100180000D036C0D62940D069F0D63A20D03AD0D62
:1001900064B00D06B40D65BE0D03BF0D0000000177
:0201A00000005D
:101BC20024D0912FA22FB32FE5E6F3E038D040D0F6
:101BD20089F0BA93AA939A938A9343D00E945C069F
:101BE200002311F4002707C0E5E6F3E08083918328
:101BF200A283B38301E0E4E00C9484300E9473304A
:101C0200802F912FA42FB52F31C00E947330802FC7
:101C12000895041B150B260B370B4091EC05552735
:101C2200662777270E94B72F802F912FA22FB32FDD
:101C32008E5F9F4FAF4FBF4F0895E7EFF5E00081F2
:101C420011812281338108958F5F9F4FAF4FBF4F24
:101C520080179107A207B30708953A932A931A931C
:101C62000A934DEE55E004E913E0089545ED52E183
:101C7200AED3002308955A934A93EFDF0C94D00712
:101C8200ECDF0C949F06C1DF012F122F232F332785
:101C920027D019F40027112705C0E82FFF272AD0E3
:101CA2000081118122273327E4E00C94843032D062
:101CB20038C0082F3FD04091EC055527662777277B
:101CC2000E94892FEAEDF5E0458156816781708592
:101CD20036C0EAEDF5E00185128523853485089545
:101CE200EAEDF5E0418152816381748128D068DF99
:101CF20000230895EE0FFF1FEC56FC4F0895EAED06
:101D0200F5E045815681678170854017510762076A
:101D120073070895EAEDF5E0058516852785308974
:101D22000895418552856385748504171507260732
:101D32003707089502501040204030400895040FA4
:101D4200151F261F371F089560DF47E00E94AE2F40
:101D5200C7DF11F41BD008C0E82FEF77FF27EE0F83
:101D6200FF1FC8DF6CDF3F70E4E00C948430009109
:101D7200EC0511272227400E511E611E711E0C2DEB
:101D82001D2DC414D5042605270508950027112703
:101D920002C00C2D1D2D2227332708950E946F307B
:101DA200602E712EE02FF12F4ADFA9DF28F4E62DF5
:101DB200F72D45DF2EDF01C059D044245524009170
:101DC200DA05E8E3F7E00C94F42F55D08CD0E1F17A
:101DD2004FEF441A540A0F3F140740E02407340718
:101DE20039F032DF29F0E62DF72D46814062468335
:101DF200802F912FA22FB32F0F3F1F4F2040304033
:101E020021F71CC044D06FD0F9F04FEF441A540AA6
:101E12000F3F140724074FE0340739F015DF29F08C
:101E2200E62DF72D468140624683802F912FA22F07
:101E3200B32F0F3F1F4F2F4F3F4021F7042D152D7A
:101E420005C001E010E002C000271127E8E00C9471
:101E520080300E946F30602E712E442E552EE7EF97
:101E6200F5E0048115812681378149CF82E090E037
:101E7200A0E0B0E0089540D006CF005110402040CD
:101E82003040442D552D662777270C94B72F34D038
:101E92005BCF2ED0880E991E482D592D04E913E0F0
:101EA2000E94B330042D152D262D372DE9DE002397
:101EB2000895042D152D262D372D089500E718D0ED
:101EC20044E255E0082D192D0E94B33001E010D0F4
:101ED200442D552D662D772DAC56BA4F0A2F1B2F48
:101EE20010D0402E0895402F412B422B432B0895B2
:101EF20010E01A930A930895082F192F2A2F3B2FC7
:101F020008950E946930842E952EA62EB72ECE8477
:101F1200DF84E02FF12F068105FD03C03ADF94D064
:101F220075C0EAEDF5E00581168127813085081537
:101F320019052A053B0550F4402F512F622F732FAC
:101F4200082D192D2A2D3B2D64DE01C08FDF823032
:101F520000E09007A007B007A8F0CEDF76D05527A3
:101F6200662777270E94892FEAED4581568167818E
:101F72007085402E512E622E732E440E551E661E03
:101F8200771E05C0EAED4184528463847484481448
:101F920059046A047B0430F4082D192D041915091B
:101FA200C00ED11E44245524662477240091DA05FC
:101FB200EEE4F7E00C94F42FDADE18F44AD060F481
:101FC20010C059DF31D009F156D060407040A1F7FE
:101FD200CEDE70F43ED028F08250904053D06BDEBB
:101FE20001C077DE400E511E621E731E62DF0EC0FC
:101FF2004EDF1AD051F03FD06F4F7F4049F7C9DE14
:10200200080D191D2A1D3B1D01C0C0DEE0E10C9424
:102012007A30402F512F622F732F062D172D7FD22A
:10202200402E512E012B0895402F512F622F732FD6
:102032002CC0282F392F2F5D3F4F402F512F421B8D
:10204200530B4B17504008957ACE74DE4091EC0545
:1020520008954091EC0555270E94592F442E552E84
:102062006624772482309207A207B2070895512E80
:10207200622E732E0AC0842F912FA22FB32F4F3FAF
:102082005F4F0895A040B04037CF012B022B032BA6
:102092000895BBDD912FA42FB52F3AD042DEA0F5D3
:1020A2000091FF05112745E00E944B2F0C561C4F53
:1020B20000930406109305060091FF050031E0F439
:1020C20029D02DD011F4002720C00091FF050395DF
:1020D2000093FF05082F192FEA2FFB2F09950023E4
:1020E20011F001E012C0E7EFF5E005851685005E0C
:1020F2001F4F05871687E0CF00270093FF050AD000
:102102001BD01FD023D0C9CF02E0E4E00C9484306E
:10211200E7EFF5E004811581268137810895E7CD47
:10212200F9CD0085118522853385EAEDF5E0058735
:1021320016872787308B0895008311832283338388
:1021420008950F5F1F4F2F4F3F4F0895048315834C
:102152002683378308959DDF002339F00A9519F00D
:102162000A9519F002C001E008950027089514D0DD
:10217200B0DDE7EFF5E0EADFDFDF15D0448155811E
:102182006681778161DF1CD000270093FF051DD097
:10219200E2DFE4E00C9484300E947330A02FB12F70
:1021A200842F952F08950091EC0511274091EB059E
:1021B20055270E943B2F212F210F220B322F0895EA
:1021C20001871287238734870895482F592F0A2FB2
:1021D2001B2F08953EDE10F41CDD01C047DE3AD00D
:1021E20039F00A9519F00A9529F004C001E00DC0F2
:1021F20000270BC040DE0CD010F05BDD01C069DDB2
:1022020011D000E0A007B00751F7E8E00C9480304D
:10221200802F912FA22FB32F823000E010072007CA
:1022220030070895E7EFF5E00483158326833783AB
:102232000091EC05112722273327448155816681BD
:1022420077817DDD01871287238734878F3F0FEFE8
:1022520090070895442D552D062D172D1ADF0023C2
:10226200089507D022272093FF05B4DFE4E00C9401
:1022720084300E9473301AD00482158226823782FB
:1022820000821182228233820090EC0511242224E2
:10229200332484819581A681B781080E191E2A1ED6
:1022A2003B1E01861286238634860895EAEDF5E008
:1022B2000584168427843088E7EFF5E00895C9DDA8
:1022C20010F4A7DC01C0D2DDC5DF99F00A9519F040
:1022D2000A9521F003C001E00DC00BC0D8DD98DFE4
:1022E20010F0E7DC01C0F5DC9DDFA0070FE0B007CE
:1022F20059F70027E8E00C948030BBDF22272093B7
:10230200FF05DDDFE4E00C9484300E947130802F01
:10231200912F442E552E91DC02DFF1F00091FB0546
:102322001091FC050C561C4F3AD0B1F040D00E94DF
:10233200051E11272091FB053091FC05020F131F8A
:102342001250A0F0422F532F78DC95DC002321F0AD
:1023520004E913E024D011F4002711C013D0132F85
:10236200117015836CDCEDDEE7DE01C00BD0082FA7
:10237200192FE42DF52D0995002369F201E0E6E01D
:102382000C94823014D00E94051E1127E7EFF5E06D
:1023920024813581200F311F2483358308950093D2
:1023A200FD051093FE050E94051E0023089500916D
:1023B200FD051091FE05089579DF008211822282C7
:1023C200338222272093FB052093FC059ECFE4DE77
:1023D2000091DA05E4E6F7E00C94F42F68DCF5DE10
:1023E20011F4C5DE09C03DDF07C0EFDE86DF04C0A1
:1023F200ECDEE2DF01C00027E4E00C948430CCDEA6
:102402000091DA05EAE7F7E00C94F42F50DCDDDE08
:1024120011F4A1DE09C0DEDE07C0D7DE50DF04C042
:10242200D4DE73DF01C00027E4E00C9484300E9404
:102432006B30802F912F842E952EAC84BD84E02F9B
:10244200F12FB0A165D040E250E0082D192D0E9475
:10245200CA3003E05ED040E250E00A2D1B2D0E94FC
:10246200CA30BB2309F445C0BF3008F042C0E82F90
:10247200F92F01A10230E8F1482E592E01E2400E57
:1024820000E0501E6B2EAA274BE337D031F0D1DD8E
:1024920020F4B02F082F0F5DB01BBD3050F54EE277
:1024A2002CD069F0C6DD58F4602E282F2F5D621AF9
:1024B2000F5F1F4F402E512EAB2FA619AA9509E090
:1024C2006016B8F4A430A8F477247A926A928196BE
:1024D200482F592F082D192D0E94B330BB27BA93CC
:1024E200AA93442D552D0A2D1B2D0E94B33001E0D5
:1024F20001C00027EEE00C947C3050E0082F192F29
:102502000F5D1F4F0E94DB30202F212B089502D038
:1025120008E0EECC008711872287338708953FD0E9
:10252200042F152F262F372FFADD49F124E933E046
:1025320000919403109195030639124029F0E82F77
:10254200F92F068500610687E22FF32F048115819A
:102552000030114029F4E82FF92F068500640BC0E2
:10256200E22FF32F048115810038104029F0E82F63
:10257200F92F068500610687CBDDD1DD19F400272E
:1025820011270AC0E82FF92F068506FF03C000E0D5
:1025920011E002C000E810E08991999108959A93A0
:1025A2008A93802F912F08950E946B302397602E7B
:1025B200712E0FE0AEDF44275527062D172DF9D0D7
:1025C20009F060C00AD161DD09F4B2C0F8D009F0A7
:1025D200AFC00C2F1D2F1A930A93462D572DE7DEFD
:1025E20026DF002309F4A4C0E091FD05F091FE0569
:1025F200018D01FD9DC0E62DF72D0685046006873D
:1026020003E087DF4FEA51E00C2F1D2F0E5FE0D071
:1026120061F4E3D0013012402040304008F088C01D
:1026220008E0E62DF72DDED023C003E072DF42EA98
:1026320051E00C2F1D2F0E5FCBD009F079C0B7DE11
:102642000E5FCDD0E6DC09F473C0C7D016DC452B93
:10265200462B472B39F0C1D0013011402040304089
:1026620008F066C0BAD009DCE62DF72D048715877D
:102672009EDE0E5FB4D042E00E94A52FE62DF72D1C
:1026820049DF92C0B4D0828C938C04891589312F92
:102692001127A02EB32E0081053E09F449C0008106
:1026A200053009F445C00081002309F441C00385C7
:1026B2000E7DF1F503E01A930A934FEA51E083D0BD
:1026C20096D0048D158D268D378DB1F401301240D0
:1026D2002040304008F02CC008E0E62DF72D068798
:1026E200002711270487058702E080169106A106BC
:1026F200B10608F044C04FC0C8DCD1F003E009DFE6
:1027020042EA51E060D0A1F472D0038500FF05C017
:10271200E62DF72D0685046006876ED030F0082D71
:10272200192D2A2D3B2DC6DA01C0D3DA72DC11F441
:1027320000273BC05CD0848D958DA68DB78DDCDBE8
:10274200005911409CDB452B462B472B39F0813039
:1027520001E0900700E0A007B00738F580599140EA
:1027620091DC442D552D662777270E94B72F0D5FE8
:102772001F4FE62DF72D048715873ED060F00EEF30
:10278200800E0FEF901EA01EB01E082D192D2A2DAF
:102792003B2D91DA01C09DDAE62DF72DB8DE39D056
:1027A200062D172D0E94B33001E02396ECE00C9425
:1027B2007C300E94CA300091DA050F370895F7DDA8
:1027C2000F5F1F4FF0CD0091040610910506085FC0
:1027D2001F4F0E946B1D012B0895E9DD065F1F4FFD
:1027E2000C94301E06870027048705870895E09120
:1027F2000406F0910506089502E0801600E09006B6
:10280200A006B0060895082F192F0D5F1F4F0C94D4
:10281200E83040910406509105060895EFD951F031
:1028220077DE4A2F5B2F0CD0012B11F401E003C09D
:102832000BD0B1F70027E4E00C94843046EA51E073
:10284200082F192F0C946B1D45ED52E1082F192FFB
:10285200D6DD00230895D2D969F05ADE4A2F5B2FC4
:10286200082F192F0E948F30012B11F401E003C0B1
:10287200EBDF99F70027E4E00C9484300E946F307C
:10288200802F912F442E552E662E772EEFD951F0A0
:102892000DD0041515052605370511F401E003C016
:1028A200D3DFB1F70027E8E00C948030E82FF92F4E
:1028B200008511852285338508950E9474302F97F3
:1028C200A02F002321F00EEB13E00E944F1F5EDACF
:1028D20026DC09F4B4C084E993E0AA2391F0E4E988
:1028E200F3E0E150FE4F0081CAD0E4E9F3E0E250A8
:1028F200FE4F00811A930A9308ED13E00E944F1FC6
:102902002496E82FF92FE250FE4F0081053509F099
:1029120096C0E82FF92FE150FE4F00810A3A09F0E4
:102922008EC082549E4FE82FF92F04810093DA055E
:10293200AA2331F0A4D003EF13E00E944F1F229686
:10294200B5DFEDDB09F47BC084E993E00091DA05A1
:10295200045049F0025039F0055099F10A9589F175
:10296200025009F063C0AA2321F00CE014E00E9497
:102972004F1F6AD04385548586D04187528763872B
:102982007487458756876787708BE82FF92F0681F2
:10299200178144E00E94522F177F4091EC05552782
:1029A2000E94592F0093EB05FEDBEAEDF5E041852D
:1029B20052856385748548DB0583168327833087B8
:1029C2003CC0AA2321F003E114E00E944F1F3CD037
:1029D200418D528D58D0458356836783708701E0BD
:1029E2000093EB05E82FF92F01A112A123A134A135
:1029F2000230A1D930F001A112A123A134A15AD9E8
:102A020001C067D9DDDB93DB01851285238534851F
:102A1200088719872A873B8700270C870D874AD0AA
:102A2200202F212B51F00093EB0507C0AA2339F088
:102A32000AE114E00E944F1F02C001E001C000271A
:102A42002F96E3E00C9485300B96E82FF92F4189FD
:102A52005289638974890381148122273327400FA5
:102A6200511F621F721FEAEDF5E0418352836383B7
:102A72007483E82FF92F058111270895082F112754
:102A82001A930A9308950E943B2F22812093EC050A
:102A9200418952896389748903801480400D511DD4
:102AA200631F731F2227400F511F631F721FEAED1E
:102AB200F5E008950C2F1D2F085F1F4F6FC99A93E1
:102AC2008A9300E410E020E030E029DB91F184E910
:102AD20093E004E913E00E94051E013051F505E080
:102AE20018DD43ED51E004E913E00F5F71DE09F5F3
:102AF2000FE70093DA0504E913E004561F4F0E5F57
:102B02006EDE42E00E94A52FEAEDF5E059DB0FDB15
:102B1200805B9F4F082F192F0E94301E42E00E94B7
:102B2200A52FEDEEF5E0058316832783308701E0BC
:102B320001C000278991999108959A938A939927C0
:102B420081E08A3068F410D01CD000303CF4893027
:102B520021F4893019F4ABD809F493958395F1CF18
:102B6200092F899199910895082F04D0E02FF12F10
:102B72000895082D112747E050E00C943B2FEA2FCF
:102B8200FB2FE656FA4F008108959A938A93239772
:102B920062D011DE39F521DE00301840204030408D
:102BA200E1F50DDED1F50C2F1D2F1A930A93482F54
:102BB200592FFDDB3CDC002309F42FC0E091FD0519
:102BC200F091FE05018D01FF28C0E82FF92F06853F
:102BD200046008DEECDB0E5F02DE42E00E94A52FFD
:102BE20044D034C004DE028D138D44895589242FCC
:102BF200352F4081453E89F04081453071F040815A
:102C0200442359F0438544FF08C0448D558D668D99
:102C1200778D452B462B472B11F0002718C04427F0
:102C22005527E82FF92F44874587023014072407D8
:102C3200340718F00ADA42D801C04BD8E82FF92F2E
:102C420066DCE7DD082F192F0E94B33001E02396DE
:102C5200899199910895802F912F0FE049D94427A6
:102C62005527082F192F0C94CA30E82FF92F52CC70
:102C72000E9470306E97402E512E0C2F1D2FE7EFC1
:102C8200F5E04FE02FD0EAEDF5E085859685A78542
:102C9200B089E42DF52D45DA662427D0015F1F4F58
:102CA200BDDD002359F00B8D1C8D012B39F4E42D71
:102CB200F52D06850160068701E0602EEAEDF5E05C
:102CC20085879687A787B08B07EF15E0EC2FFD2F3E
:102CD2004FE008D0062D6E96E7E00C948130082F65
:102CE200192F47E050E00C94443046EA51E00C2F93
:102CF2001D2F089554DC46EC55E169DB002311F0E9
:102D020009D003C00FE005DC04D001E0899199915C
:102D12000895A5CFE82FF92F068502600687082FB0
:102D2200192FA6CF9A938A932F97802F912F46EC33
:102D320055E165DB002311F0EDDF03C00FE0E9DBB5
:102D4200E8DF01E02F96899199910895E02FF12F04
:102D5200268521FF03C0E5D901E0089500270895E3
:102D62009A938A932F9777DF0E94580ED1DB19F43A
:102D720048EB51E002C041EC51E0082F192F0E94AC
:102D82009D1DCED972DFC8DFDCCF0E943609002339
:102D9200C7D9E6E0F6E011F4CFD901C0D7D904E6ED
:102DA200B8DB48E006E016E00C945A1EF8DB0E94FD
:102DB200370E71F011D051F0ABDB40DD012B31F059
:102DC200E82FF92F0685006806879FCF3DDD91F732
:102DD2000FE09FDB9EDF99CF082F192F085F1F4F4F
:102DE2000E94CF0E012B0895DADB2EDD89F3F4DF8A
:102DF200E1F38EDB23DD012BC1F3E82FF92F0685EA
:102E02000068068782CFE4CF0E94060EA42FB52F5A
:102E12000FE07FDB442755270A2F1B2F0E94CA3061
:102E22008823A1F18A3090F500919A05083071F556
:102E32008930C9F40E94580EB1F096DEA2DE00304D
:102E42001CF507E066DB43ED55E00A2F1B2F085FF8
:102E52001F4F0E94B3305CDB4AEC51E00A2F1B2F5C
:102E62000E949D1D11C080DEE656FA4F208120305F
:102E72005CF410D00A2F1B2F01DD002329F0EA2F6A
:102E8200FB2F06850068068701E001C00027E4E009
:102E92000C9484300C561A4FE02FF12F408151814F
:102EA2006281738108950E946E302F97802E442E86
:102EB200552E002309F47CC00AE0801608F078C081
:102EC20000919A05083009F073C009E0801639F4C0
:102ED200801609F06BC00E94580E09F067C0E42DFD
:102EE200F52D40855185628573850C2F1D2FC6DC1B
:102EF200002309F45DC0E7EFF5E084819581A681A6
:102F0200B781D8DD012B09F453C055DCA1F46FD091
:102F120026563A4FE22FF32F008104600083A1E08E
:102F2200AA3008F043C049D019F4A81509F0D7DE39
:102F3200A395F6CF3BC00E947D0FF1D8C9F1E42DD5
:102F4200F52D068554DC02FF03C00385016002C033
:102F520003850E7F03870E947D0F0E94410E00238E
:102F620039F145D0E42DF52D068526563A4FE22F4C
:102F7200F32F02FF03C00081046002C000810B7FB7
:102F82000083A1E0AA3038F418D019F4A81509F08A
:102F9200A6DEA395F7CF09E0801641F406E9B9DA77
:102FA20047E0082D36D047E00E945A1E01E001C0DA
:102FB20000272F96E9E00C947F300A2FDBDD802F6B
:102FC200912F8C569A4FE82FF92F408051806280C2
:102FD2007380CFDDE02FF12FEC56FA4F0081118183
:102FE2002281338140165106620673060895C1DDBF
:102FF200202F312F0C561A4FEC2FFD2F389647E019
:1030020050E00E944430E22FF32FBBDD00680083C2
:10301200089550E00E943B2F0C561A4F08950E94CB
:103022007230402E002361F10AE0401648F500910B
:103032009A05083029F509E0401629F4401601F5F1
:103042000E94580EE9F407E064DA5527042D47E0A0
:103052000E943B2F802F912F8C569A4F082F192FA9
:1030620040E050E00E94CA3009E0401639F406E917
:1030720050DA47E0082F192F0E945A1E01E001C0C2
:103082000027E5E00C948330002321F00A3010F48D
:1030920001E0089500270895002371F00A3060F4DA
:1030A20064DD6FDD003044F406FF03C000E011E090
:1030B200089500E810E008950027112708950023DD
:1030C20079F00A3068F451DDE656FA4F208120305B
:1030D2003CF408561A4FE02FF12F00811181089518
:1030E2000027112708950E946F302F9764DB09F49F
:1030F20060C023DD11274DE050E00E943B2F802F5E
:10310200912FF3DD8BDB002309F453C0AA276FDB79
:10311200848F958FA68FA78F0E9489100E94410EDF
:10312200002309F446C0488459846A847B84882732
:103132009927A1E0AA30D8F5A93029F4A930A9F538
:103142000E94580E91F50A2F10DDE656FA4F2081A3
:1031520020305CF59FDE0C2F1D2F90DB002329F120
:103162000E945A0F0E94901021F104E427D00A2FE6
:10317200005D24D00DE322D0CBD94C2F5D2F4E5FC2
:103182005F4F082F192F0C561C4F0E94B330089620
:103192000DE014D00AE012D00027E82FF92FEC56E8
:1031A200FC4F00830E94530F21F0A395C3CF01E08F
:1031B20001C000272F96E8E00C948030E82FF92F09
:1031C2000196EC56FC4F00830895EDEEF5E04AE0DF
:1031D20050E00C944430E3D90091DA05E82FF12F46
:1031E20000830091EC050183A8DCE82FF92F02830C
:1031F20004E403838991999108950E946F30402ECF
:10320200512E622E732E842F952FA42FB52F07E2F5
:1032120080D944275527082F192FCBDA09F4C0C0CB
:10322200442D552D662D772D082F192F27DB0023CE
:1032320009F4B6C007E26DD96CDDD9DA05810E3723
:1032420021F006810E3709F08BC00E2F1F2F442468
:103252002091FF052A952093FF0519F00052104096
:103262000BC00E941E0E0E94901009F499C00FE03C
:103272000093FF0504E715E0E02FF12F23852F309F
:1032820009F06EC02DE0420E28E2421608F068C036
:103292002281222311F4218101C020E285D02481E0
:1032A200222311F4238101C020E27ED02681222331
:1032B20011F4258101C020E277D02085222311F468
:1032C200278101C020E270D02285222311F42185BA
:1032D20001C020E269D02785222311F4268501C08E
:1032E20020E262D02189222311F4208901C020E248
:1032F2005BD02389222311F4228901C020E254D019
:103302002589222311F4248901C020E24DD0278986
:10331200222311F4268901C020E246D0218D2223E6
:1033220011F4208D01C020E23FD0258D222311F41B
:10333200248D01C020E238D0278D222311F4268D5E
:1033420001C020E2E82FF92F21938E2F9F2F2227F1
:103352002083E02FF12F2081203408F479CF1EC082
:103362000E9489100E949010D9F0D2D852DA0A2F06
:103372001B2F0E94B3300EE2EA2FFB2F008703E0DF
:10338200C8D847DA485F5F4F0A2F1B2F075F1F4FCE
:103392000E94B3300027EA2FFB2F048701E001C00F
:1033A2000027E8E00C948030E82FF92F21938E2F2C
:1033B2009F2FE02FF12F0895ABD0002309F469C0AD
:1033C2000A3008F066C0D1DB9ED00CF062C07CD01F
:1033D20008F45FC0082F092B09F45BC0D0DB06FF9D
:1033E20003C000E011E002C000E810E0003820E075
:1033F200120741F0E82FF92F319708F1E82FF92F42
:103402003497E8F44AD0032B09F443C066D059F04C
:103412000E949010F1F1979582D07BD88C569C4FE8
:10342200482F592F30C00E94901099F10E945F0FCF
:103432000E94461071F164D061F100E11DC00030BC
:10344200114029F534D0032B21F150D051F00E94C4
:103452009010F9F000E011E01A930A9344E254E06C
:1034620012C00E949010A9F00E945F0F0E944610A5
:1034720081F046D071F000E94CD844E953E000E70E
:10348200800E00E0901E082D192D0E94B33001E03D
:1034920001C00027ECE00C947E30082F192F33274F
:1034A20001500E949C0E44E042D044E009C0082F23
:1034B200192F332703500E949C0E42E038D042E07D
:1034C20050E0012B022B0895EA2FF12FE856FA4F14
:1034D20000811181081719070895082F192F0E94DA
:1034E200592F842F952F042F052B05C0082F192F34
:1034F2000E94592F452B042D152D089580E790E049
:10350200042D0C94780EA02FB12F3BDB00300895D0
:103512000E946D30842F952F8A849B840895982F62
:103522009795882787958057904000E8089550E046
:1035320060E070E00E94B72F1A930A93EA2FFB2FE4
:10354200EC56FA4F40815181628173810A2F1B2F01
:103552000C561A4F0E94820F402E512E622E732E4D
:103562000895D6DF1091DA051F3709F48EC00023C3
:1035720009F48BC00A3008F088C0F7DAC4DF0CF017
:1035820084C0EA2FF12FFDDA02FD7FC09DDF08F42F
:103592007CC0082F092B09F478C0F1DA06FF03C0BA
:1035A20000E011E002C000E810E0003820E012075D
:1035B20041F0E82FF92F3197B8F1E82FF92F34971E
:1035C20098F56BDF032B09F460C087DF99F00E9446
:1035D200901009F45AC09795A2DF0E948A12482DD2
:1035E200592D8C569C4F082F192F0E94510F09F408
:1035F2004CC049C00E94901009F447C000E70E94E5
:103602008A12482D592D04E215E00E94510FE9F16A
:103612000E94670F0E943810C1F170DFB1F100E122
:103622000E944A0F91F12FC00030114061F53FDF37
:10363200032B59F15BDF79F00E94901031F100E029
:1036420011E01A930A93482D592D04E214E00E94C6
:10365200510FD9F018C00E949010B9F000E70E94F3
:103662008A12482D592D04E215E00E94510F69F08B
:103672000E94670F0E94381041F040DF31F000E9EC
:103682000E944A0F11F001E001C00027ECE00C9407
:103692007E300E9472302A97A02FB12F46EA51E065
:1036A200BDD8002309F4ACC0EA2FFB2F0485158591
:1036B200012B09F0A5C006E40E948A12BDD004E9DC
:1036C20015E0B3D0E4E9F5E00E94200E0E949010CC
:1036D20009F496C09AD004E913E00E94C31D802F1A
:1036E200912F012B09F48CC0E82FF92F00810434AB
:1036F20009F042C002810D33F9F5418000ED400E20
:10370200D9F10AE04016C0F509E0401629F4401646
:1037120099F50E94580E81F576D80930104060F56F
:103722000E94891240E250E00C2F1D2F0E5F1F4FA6
:103732000E94CA3068D81A930A930396482F592FC9
:103742000C2F1D2F0E5F1F4F0E94B3304C2F5D2F89
:103752000A2F1B2F80D8002379F00A2F1B2FACD9F8
:10376200012B29F0EA2FFB2F068500680687042D1E
:10377200112747E04EDC59D0E4E9F5E00E94200E23
:103782000E949010E9F141D0002711270E94C31D29
:10379200802F912F012B09F0A7CF0091D90500307E
:1037A2001CF40E94580E11F107E00E948A1244276D
:1037B200552703ED15E00E94CA3006E90E948A12DD
:1037C20047E003ED15E00E94371E0023B9F003ED38
:1037D20015E00E94CF0E012B89F407E00E948A12A5
:1037E2004427552703ED15E00E94CA3006E90E94DE
:1037F2008A1247E003ED15E00E945A1E01E001C063
:1038020000272A96E5E00C9483300C2F1D2F085FC9
:103812001F4F1A930A9343EB51E008950DD00DEE1A
:1038220015E00E94390900230895EA2FFB2F3896EC
:1038320047E050E00C9444304427552704E915E052
:103842000C94CA302F9703E10E948A1238D00E944A
:103852008A12E4DF89F10A9519F00A9531F02CC039
:1038620000272BD8002321F427C029D9002321F1D6
:1038720004E60E948A1248E006E016E00E94371E23
:10388200002381F00E9436090023E6E0F6E019F4F5
:103892000E94200E02C00E948B100E94961017D028
:1038A200002341F40E946A0E0E9498106EDA0FD033
:1038B200002311F001E001C000272F96089544274C
:1038C20055270AED15E00E94CA3006E408950C2F30
:1038D2001D2FDFCE8A936B9703E214E00E944F1FE5
:1038E20003E10E948A12EBDF0E948A1297DF09F439
:1038F20062C00A9521F00A9509F452C05CC00DE33A
:1039020014E00E944F1F0091F6050030A4F40EE46B
:1039120014E00E944F1FEDEEF5E00581168127812C
:1039220030853A932A931A930A9302E614E00E948E
:103932004F1F249622C004E714E00E944F1F0091FB
:10394200ED051091EE051A930A9307E814E00E9420
:103952004F1F22960091EF0592D809E914E00E94C8
:103962004F1F22960091F0051091F1051A930A93C8
:103972000BEA14E00E944F1F229601E00E945E149F
:10398200002359F40DEB14E00E944F1F09EE14E0DE
:103992000E944F1F05EF14E04FC00FE015E008C072
:1039A2008ED8002319F409E215E046C00BE415E0B5
:1039B2000E944F1F07C005E615E00E944F1F08E84E
:1039C20015E03AC004E60E948A1244E007EE15E0D0
:1039D2000E94371E002391F001EB15E00E944F1F59
:1039E20076DF002319F009EC15E01DC005EE15E0A5
:1039F2000E944F1F0AE016E00E944F1F04E60E9439
:103A02008A1244E003EE15E00E945A1E04E216E018
:103A12000E944F1F0E946A0E0E94981058DF0023D6
:103A220029F00BE316E00E944F1F0EC006E516E0D8
:103A32000E944F1F0AE016E00E944F1F0AE716E09D
:103A42000E944F1F002743C006E816E00E944F1F46
:103A520081E08A30B8F54C2F5D2F082FD5D900238D
:103A620079F10E8500302CF50CE00E948A12442771
:103A720055270C2F1D2F0F5E1F4F0E94CA300E9428
:103A820089124C2F5D2F4E5F5F4F0C2F1D2F0F5E43
:103A92001F4F0E94B3300C2F1D2F015F1F4F1A932F
:103AA2000A930E943F1502EA16E00E944F1F2496D5
:103AB20007C00E943F1503EB16E00E944F1F22969B
:103AC2008395C7CF0AEC16E00E944F1F01E06B9668
:043AD2008991089539
:1003BE000A54727920746F20496E69742046696CF4
:1003CE00652053797374656D3A000A20204D4252B0
:1003DE00206D61726B202020202020203A20307862
:1003EE0025782578000A2020506172746974696F2F
:1003FE006E2054797065203A20307825780020469A
:10040E0041543136002046415433320020556E6B34
:10041E006E6F776E000A5465737420737461727414
:10042E002028706C65617365207761697429000AF4
:10043E0048444420706172616D65746572733A0050
:10044E000A20204D6F64652020202020203D204C66
:10045E00424120000A2020536563746F727320207E
:10046E00203D20256C000A20204D6F646520202041
:10047E002020203D20434853000A202043796C69F8
:10048E006E64657273203D202569000A2020486540
:10049E0061647320202020203D202569000A202041
:1004AE005365632F547261636B203D202569000AEA
:1004BE0048442044726976652063616E206E6F74C5
:1004CE0020626520696E697469616C697365642E5A
:1004DE0020506F737369626C793A000A20202D20C8
:1004EE004E6F204D4252000A20202D2057726F6E03
:1004FE006720706172746974696F6E2074797065AB
:10050E00000A484420447269766520696E697469F0
:10051E00616C69736564204F4B2E000A434420447E
:10052E00726976652063616E206E6F74206265203D
:10053E00696E697469616C697365642E000A43445F
:10054E0020447269766520696E697469616C69739D
:10055E006564204F4B2E000A5468697320446973FA
:10056E006B2063616E206E6F7420626520696E6908
:10057E007469616C697365642E000A57726F6E67D9
:10058E00206469736B20666F726D6174206F7220C8
:10059E006469736B206E6F74206174746163686537
:1005AE00642E000A54727920746F20496E6974208B
:1005BE005361766564204469723A000A20205361C3
:1005CE007665642044697220696E697469616C692C
:1005DE00736564204F4B000A2020536176656420BA
:1005EE004469722063616E206E6F742062652069AB
:1005FE006E697469616C697365642E000A202053FC
:10060E00494F324944452E434647206E6F7420664B
:10061E006F756E642E000A54727920746F20496EC5
:10062E00697420526F6F74204469723A000A202058
:10063E00526F6F742044697220696E697469616CBF
:10064E0069736564204F4B000A2020526F6F74202F
:10065E004469722063616E206E6F7420626520693A
:10066E006E697469616C697365642E000A546573F2
:10067E0074204552524F52000A4469736B732061C5
:10068E007661696C61626C6520666F7220415441BF
:10069E0052493A000A20204425643A203E20257310
:1006AE002E415452000A20204425643A203E202D2B
:1006BE002D2D2D2D2D2D2D2E2D2D2D000A54657306
:0506CE0074204F4B00F9
:100738000401250FE60E02E60E05030F01030F0262
:10074800E60E71220FFB04010610DD0F02DD0F0516
:10075800E90F01E90F02DD0F710010FB0401FC1124
:10076800EF1102EF1105F61101F61102EF1171F9FF
:1007780011FB040114120712020712050E12010ED2
:0807880012020712711112FBAD
:0406D800FFFFFFFF22
:1001A2004154520053494F32494445200043464787
:1001B2000020090D0A00433A28524F4F54290028C3
:1001C20053554244495229003C434F4D4D4F4E3EF8
:0701D200004344303031000E
:103AD60028813981622F732F21503040672BD9F00E
:103AE600E02FF12F6081E42FF52FC895601571F056
:103AF600E02FF12F0081E42FF52FC895001618F45A
:103B060001E010E00AC00FEF1FEF07C00F5F1F4F65
:103B16004F5F5F4FDFCF002711272296089505D00C
:103B26000F5F1F4F008311830895E82FF92F00813F
:103B3600118108959A938A938A819B81282F392F20
:103B46000197232B59F0E42FF52F4F5F5F4FC89550
:103B5600E02FF12F01920E2F1F2FF0CF899199910F
:103B660022960895E02FF12FC895002031F0C895D0
:103B7600041629F00F5F1F4FF5CF00271127089570
:103B86000E947130442E552E8E819F81202F212B2D
:103B960021F0E82FF92F00831183C7DF012B41F0B5
:103BA6002BD021F020D011F0BADFFACF25D019F4AE
:103BB6000027112715C0E82FF92FA081B1811CD04D
:103BC60069F011D011F4ABDFFACF0027E82FF92FF7
:103BD60020813181E22FF32F0083A1DF0A2F1B2FD3
:103BE600E8E00C948230A1DFE02FF12F4081042D14
:103BF600152DB8DF012B089598DFE02FF12F0081F6
:043C060000230895FA
:103C0A00E02FF12F00810895E02FF12F0081112775
:103C1A000895E02FF12F008111810895E02FF12FEF
:103C2A0020810181122F0895F4CFF3CF402F512F15
:103C3A00E02FF12F0081302F22271127E42FF52FB3
:103C4A000180322E202D33290280312E102D332966
:103C5A004381042F0895E02FF12F008111812281E1
:043C6A003381089505
:103C6E0068817981262F2395E199FECF17D03A3AB4
:103C7E0091F4342F4A95332361F0E199FECF622FF0
:103C8E00239577270BD0E02FF12F31930E2F1F2F77
:103C9E00F0CF01E001C00027229608957FBB6EBBD6
:103CAE00E09A3DB3089528813981522F5395E199B9
:103CBE00FECFF8943FBB2EBB6FEF6DBBE29AE19A3D
:103CCE007894642F4A95662371F0E199FECFF894AB
:103CDE00652F539577277FBB6EBBE02FF12F619138
:103CEE000E2F1F2FEACFE199FECFF8943FBB2EBBCC
:103CFE000AEA0DBBE29AE19A789401E022960895C1
:103D0E002091100630911106232B69F0E0E1F6E0C8
:103D1E0020812F5F3F4F2083318321503040E22F8F
:103D2E00F32F008308950C94E1090E947030A02FA8
:103D3E00B12F442E6F8055246620E1F00E9433206F
:103D4E00802F912F042D11278415950598F4081BAB
:103D5E00190B802F912FEA2FFB2F0081002351F09A
:103D6E00082F192F0197012B29F0062DC9DF4A9430
:103D7E005394F1CFEA2FFB2F0081002341F0042D45
:103D8E004A94002321F00D91BBDF5394F3CF052D00
:103D9E00E8E00C9481300E946F30602E712E442426
:103DAE0055245ED0882309F456C0853209F04DC0E3
:103DBE0081916E2E7F2EAA27803311F0803211F45E
:103DCE00A82F4ED09FEF082F0E941821002379F0C4
:103DDE009927082F0E941821002349F08F70092F70
:103DEE004AE00E94272F982F900F3AD0F2CF082F3B
:103DFE00E0E9F7E00C94F42F39D040D00E94C31FB5
:103E0E0006C034D06D917D9139D00E94DD1F492FAF
:103E1E0012C000270A9337D04D915D912FD00E948A
:103E2E00881F42E008C000270A93492F2CD00D911D
:103E3E001D91A083B18379DF1127400E511EB1CFA2
:103E4E0022D08D919D91A083B183082F59DF0FEF62
:103E5E00401A500AA6CF042D152DE8E00C948030A0
:103E6E00E62DF72D81916E2E7F2E0895AA93EEE00A
:103E7E00F6E0A081B1814D915D910895A083B1834B
:103E8E0002E116E00895EEE0F6E0A081B18108951A
:103E9E0020E530E03A932A93402F512F0CE116E0A3
:103EAE000E949D1D00270093100600931106C093DB
:0C3EBE000E06D0930F060CE116E06DCF4D
:100790002501D81E2C1F33101F0B271F01031F0517
:0F07A000031F03081F071A1F02031F03101FFB6D
:103ECA000E947330A02FB12F00271127EA2FFB2F52
:103EDA002081222379F08D9180538A3018F00027AF
:103EEA00112708C04AE050E00E943B2F9927080F8B
:103EFA00191FECCFE4E00C948430082F192F4AE004
:103F0A0050E00C94592FE42FE295EF7008D02083EB
:103F1A004F70E42F04D02183222722830895FF279C
:103F2A00E759FC4F2081E02FF12F0895332722E033
:103F3A00E02FF12F40814423F9F0422F2A954423A0
:103F4A00D9F041910E2F1F2F403320F04A3310F43D
:103F5A0040530EC0413420F0473410F4475308C090
:103F6A00413620F0473610F4475502C0002708951D
:103F7A003295307F340FDCCF032F08950E947130C1
:103F8A00402E512E842F952FA6E7B6E000270E93D8
:103F9A00B4DF405D4E93B1DF802F912F012BC1F723
:103FAA004A2F5B2F042D152D37D0E6E00C94823072
:103FBA000E946F30602E712E842F952FA62FB72F57
:103FCA000BE7402E06E0502E0027E42DF52D029334
:103FDA004E2E5F2E17D0405DE42DF52D42934E2EC6
:103FEA005F2E10D0802F912FA22FB32F012B022BDF
:103FFA00032B81F7442D5F2F062D172D0DD0E8E0F6
:10400A000C948030082F192F2A2F3B2F4AE050E0BA
:10401A0060E070E00C94B72F2FEF3FEF3A932A93AA
:10402A0068817981202F312FE42FF52F008000201D
:10403A0079F0062E172E61507040012849F0019040
:10404A004E2F5F2FE22FF32F01922E2F3F2FECCF0F
:10405A004427E22FF32F4083229608959A938A9356
:10406A0088279927E02FF12F21910E2F1F2F222326
:10407A0011F00196F7CF082F192F89919991089578
:10408A00E02FF12F2081222331F02081241729F0FB
:10409A000F5F1F4FF5CF002711270895EDE7F6E0D0
:1040AA00008111810F5F1F4F00831183089531D062
:1040BA00042F052B21F040937B0650937C06009138
:1040CA007B0610917C06012B11F400271FC04C813E
:1040DA0000917B06D5DFA02FB12F20917B0630916E
:1040EA007C06021B130B1A930A93422F532F082F95
:1040FA00192F96DF0A2F0B2B11F0119602C0AA274F
:10410A00BB27A0937B06B0937C0601E0E5E00C9404
:10411A0084300E947330802F912F08950E9473304B
:10412A00A42FB52F202F212B21F000937D06109369
:10413A007E0600917D0610917E06012B71F0E091BA
:10414A007D06F12F0081002321F01DD011F0A6DF9A
:10415A00F6CF1FD00081002319F40027112710C0C1
:10416A008E2F9F2F16D00081002341F00CD011F41E
:10417A0095DFF8CF00270DD0008390DF082F192F85
:10418A00E4E00C94843040810A2F1B2F79DF012B45
:10419A000895E0917D06F0917E060895BADFA42F76
:1041AA00B52FE82FF92F00810023A1F0EA2FFB2F6A
:1041BA000081002379F022D0011749F01FD010178F
:1041CA0018F401E010E017C00FEF1FEF14C00196BA
:1041DA001196E7CF13D0011719F4002711270BC046
:1041EA00E82FF92F0081002311F001E001C00FEF41
:1041FA00102F100F110BE4E00C948430E82FF92FE4
:10420A000081EA2FFB2F1081089583DFA42FB52F99
:10421A0025DF080F191F4A2F5B2FFEDE082F192FE3
:10422A00E4E00C948430003320F00A3310F401E007
:10423A000895002708959A938A938A819B81E02F93
:10424A00F12F282F392F0197232B11F04193F9CF02
:10425A008991999122960895042E402F152E512F57
:10426A0008811981642F752F202D312D041615060A
:10427A00D0F4002E112EEFEF0E0E1E1E600D711DD2
:10428A00002E112E0E0E1E1E200D311D20D0D9F02B
:10429A00E22FF32F215030400080E62FF72F615094
:1042AA0070400082F3CF6217730768F410D059F098
:1042BA00E22FF32F01902E2F3F2FE62FF72F019297
:1042CA006E2F7F2FF3CF042F152F22960895002EDD
:1042DA00112E01501040012808952881322F2A9565
:1042EA00332359F0E42FF52F31914E2F5F2FE02F12
:0E42FA00F12F31930E2F1F2FF1CF2196089533
:1006DC00303132333435363738394142434445466C
:0106EC00000D
:1043080008950895B89AC09ABC9ABD9ABF9A01E5D3
:104318000DB9709A0FB1F4CF0F7300937F0608950B
:10432800C09810917F0610681FB9779BFECF0FB910
:10433800779BFECFC09A0895C098006C0FB9779B01
:10434800FECF0895FBCFC09A0895C09800917F06CC
:104358000FB9779BFECF00640FB9779BFECFC09A49
:104368000FB108950F7300937F06C09808950091C8
:104378007F060FB9779BFECF00640FB9779BFECFFE
:084388000FB10895C09A0895D9
:104390000E94733088279927E82FF92F3797ECF47C
:1043A0001FD02AD002831DD0002D3196C895002938
:1043B00091F016D021D0008314D0A02D3196C8954D
:1043C000B02D1196082F092B11F401E001C0002730
:1043D000EA2FFB2F00830196DFCFE4E00C948430BA
:1043E0000027E82FF92FEE0FFF1FE752FE4FC89569
:1043F0000895E9EDF1E0C895202D3196C895E22F9A
:10440000F02D08952227E02FF12F2083218322838E
:104410002383248325830895E02FF12FEE0FFF1FC0
:1044200008958A9306E030D0802F0023E9F006FD3E
:10443000EFD082FD33D081FD9CD084FFF3CF0EE01E
:1044400023D004FFEFCF24D007E223D0E7EEF1E042
:1044500012D0E7EEF1E00FD00E94A9210E7F07D025
:1044600001E00E949421DECF8991089508E00E9426
:104470009421E5EFF1E0C895002D0E5F0C9490219A
:1044800000E20E94902100E20E9490210C94A92158
:1044900003E20E94902108E00C9494219A938A935D
:1044A0000AE0F2DF802F91E0882309F458C0082F3A
:1044B0000923EFEAF7E00C94F42FE7EEF1E052D095
:1044C00006FF1CC0002795DF00830091980610911D
:1044D0009906012B11F051D20BC00091AC060130AE
:1044E00049F400270093AC06E7EEF1E0C4DFD3DF28
:1044F0003DD030C0E7EEF1E0BEDFCDDFBADF01E056
:1045000023C0E9EEF1E02ED006FF06C00BE2C1DFCA
:104510000091800602600CC001E01AC0EDEEF1E0EF
:1045200021D006FF17C003E3B4DF009180060061CD
:10453000009380060FC0E1EFF1E014D006FF07C042
:104540000BE30E94902108E00E94942103C005E043
:1045500010E0A3D2092F00958023990FA5CF899150
:1045600099910895C895002D03958ECF00271127A6
:104570005AC29A938A93229708E086DF802F0027F9
:10458000098391E008838823D1F1082F0923EBECFC
:10459000F7E00C94F42F0BE10E9490210CE028C06E
:1045A0006FDF0F7730D000270E94942104E00E9433
:1045B000902100E80E94942100E20E9490210027AF
:1045C0000E9494210E94F9250E942C261ED002E010
:1045D0000FC009E00E94902104ED15D003E008C04F
:1045E00009E00E94902104E50ED002E040DF01E0E6
:1045F0000E949421092F00958023990FC4CF229601
:104600008991999108950E94942105E00C9490213C
:104610000E9471300CE038DF402E01E0502E442023
:1046200009F4C6C0042D0521E4EEF7E00C94F42F44
:104630000AE916E0E7DEE5EFF1E094DF06FF52C09D
:1046400001E0D7DE01831CDF0F770E949421E0E0B8
:10465000BFD0AE2FBF2FEB50FE4FC895002D039556
:104660000E949021A8D0802D3196C895902D0E944F
:10467000A9210F708017904054F4AD5FBD4FEA2F11
:10468000FB2FC895802D3196C895902D08C0AB5052
:10469000BE4FEA2FFB2F66DF0F70802F9927AA27C6
:1046A0001127A817190764F4E5EFF1E08CD00E94F8
:1046B000A921EA2FFF27E056F94F0083A395F0CFF9
:1046C00000EA16E000939A0610939B0680939E06DC
:1046D00090939F06E7EEF1E0CEDEC8DEDCDE0E94BE
:1046E000A72961C0D5DE07E20E949021BFDE01E06C
:1046F0000E94942104E916E085DE55C0E9EFF1E05F
:1047000031DF102FA2E0BB27AA0FBB1F1030EA2F0A
:10471000FB2F44F1E752FE4F6EDE018145E00E941F
:10472000312F14FF1DC010721017D1F4EA2FFB2F88
:10473000E752FE4FC895002D3196C895E02FF02D19
:104740000181002311F0002701C001E0A752BE4FF4
:10475000EA2FFB2F50DE018300918006016021C00B
:10476000EA2FFB2FEB50FE4F86DE95DEAB50BE4F9F
:10477000EA2FFB2F0EC0EDEFF1E0F4DE102F10302A
:104780006CF404FD0BC0EDEFF1E075DE84DEEDEFBF
:10479000F1E071DE01E00E94942105C000918006E5
:1047A000086000938006052D00954022550C37CFF8
:1047B000E6E00C948230EA2FFB2FED5FFD4FC895A9
:1047C0000895E7EEF1E0C895002D0C949021E92FB3
:1047D000FF27EE0FFF1F08950E946D30802F912F4D
:1047E000442E552E8A849B846C84F894E62DF0DF49
:1047F000AE2FBF2FE951FE4F3EDE4DDEDCDF002D38
:104800003196C8958017900514F0D5DF802D982F2C
:10481000042D0529B9F0A951BE4FEA2FFB2FC895E9
:10482000002D0E94A021082F8A95002349F0E42D35
:10483000F52D01914E2E5F2E0FB9779BFECFF3CF52
:104840000E94A721082D0929C1F0E62DC1DFE951F9
:10485000FE4FC895002D0E94A021082F8A950023A5
:1048600051F0E82DF92D0FEF801A900AC8950FB876
:10487000779BFECFF2CF0E94A721062D1127D3D020
:104880007894092FEDE00C947E300E946F30A02FB9
:10489000B12F642E752E9885F894442498DFEB5040
:1048A000FE4F60DE802F8F70282F3327240D331F9B
:1048B000A217B30714F48A2F841989DFEB50FE4F37
:1048C000C895002D0E94B62100271127332708170D
:1048D000130794F420917F062FB9779BFECF2064B5
:1048E0002FB9779BFECF2FB1E62DF72D21936E2E9A
:1048F0007F2E0F5F1F4FEACF0E94C621480E11275F
:104900004A161B0711F08F3049F261DFEB50FE4F62
:10491000B2DDC1DD5CDFEB50FE4FADDD01E00E949A
:1049200094217894042DE9E00C9480300E94733037
:10493000A02FB12F842F952FABDD809396069093F7
:104940009706A0939406B09395060C811D81009361
:1049500098061093990611D009DEE6E00C94843095
:104960008A93802FE02F34DFE951FE4F84DD93DD01
:10497000082F112758D0899108950E947130A09175
:104980009406B09195064090960650909706E09157
:104990009806F0919906389728F48091980690919E
:1049A000990602C088E090E064DD75DDE7EEF1E095
:1049B00062DD71DDE4E9F6E004811581081B190B65
:1049C000048315830A2F0B2B81F000811181080FBE
:1049D000191F00831183082F192F0197012B29F02C
:1049E000F0DE0D910E949421F6CF042D0529C1F02F
:1049F000E4E9F6E002811381080F191F0283138393
:104A0000082F192F0197012B59F0DBDEE42DF52D2E
:104A10000FEF401A500AC895002D0E949421F0CF44
:104A2000E6E00C9482300E947330F6DCE752FE4FD1
:104A3000C895A02D3196C895B02D1196EA2FFB2F61
:104A400080812081222311F421E001C02227EA2F56
:104A5000FB2F2083880F880FDFDCE951FE4FC895BC
:104A6000902D9E5FE0E0F8E00C94F82F092F0E9453
:104A7000902101E0082BFBDC00270AC0092F0E94CF
:104A80009021836004C0092F0E9490218368082F21
:104A90000E949421E4E00C9484308A93BDDCE752B8
:104AA000FE4FA9DC8181880F880F202F212B59F020
:104AB000000F111F09511E4FE02FF12FDCDC836125
:0A4AC000082F0E94942189910895A7
:1007AF000101AA225D22018122028E22049B2208CE
:1007BF00AA2210AA2220AA2240AA22FB0201FA2270
:1007CF00CB2202FA2204FA2208E92210E92220D0D1
:1007DF002240F022FB0101D3231823017E2302BB09
:1007EF002304D32308D32310D32320D32340D3238D
:1007FF00FB0000014A253625013E25024325023E16
:02080F0025FBC7
:1001D900820685068B0688068E0691060000210098
:1001E9002900FF003100FF003900FF002500FF0052
:1001F9002D00FF003500FF003D00080040004000D1
:100209004000400002000200010002000200040058
:06021900040008000800CB
:104ACA009A938A930E94862188279927903410F412
:104ADA000196FCCF88279927903801E098F40E9424
:104AEA009021082F0F700E94942101E079D0202F85
:104AFA003327082F0F702017304011F0002755C0B8
:104B0A000196EACF0E9490210BE00E94942100278F
:104B1A0059D0002765D000FDFCCF00270E949021C4
:104B2A0004EC0E94942107E052D00FE00E949021E9
:104B3A0000E10E9494210BE00E9490210BE050D0EA
:104B4A000F600E9494210DE00E9490210DE048D050
:104B5A000F600E94942109E00E94902104E50E94BE
:104B6A00942107E00E94902106E50E9494210FE11A
:104B7A000E94902100E40E94942105E00E94902165
:104B8A0002E00E94942130D000270E949021002741
:104B9A0027D008600E949421882799278F3F0FEF1A
:104BAA00900710F40196FACF01E08991999108953E
:104BBA00000F000F0C5D0E949021082F000F000FBC
:104BCA000C5D08950E94902101E00C9494210E94AA
:104BDA00902100270C949421880F880F8C5D082F50
:104BEA000E9490210C94A92100E2F1DF04E00E94C6
:104BFA00902104E0F5DF0E94942104E00E949021B4
:104C0A0004E0EEDF00680E94942103E21BD00BE26D
:104C1A0019D003E317D00BE315D007E213D00FE244
:104C2A0011D007E30FD004E916E00E9402220AE934
:104C3A0016E00E9402220E94C82107E2C3CFC8954B
:104C4A00002D0E5F0E94902108E00C94942102E04E
:104C5A000093A9060091A806033011F0043019F454
:104C6A0002E00093A80600270093AC060895202FBF
:104C7A00312FE02FF12F0081E42FF52F0083E22F4F
:104C8A00F12F0181E42FF52F01834E5F5F4F00273B
:104C9A001127E22FF32F60817727061717078CF465
:104CAA0062817381600F711FE62FF72F6081E42FF5
:104CBA00F52F6193662761934E2F5F2F0F5F1F4F6A
:104CCA00E8CF08950E9473305AD009F444C0238172
:104CDA00222319F022812223F1F5E02FF12FA68158
:104CEA00B7811297C1F522272093AC0620812F7134
:104CFA0039F02A9591F02A95C1F02A9561F12BC0D5
:104D0A00E02FF12F0481002309F025C00091AC06A1
:104D1A000D7F0093AC060E7F1BC0E02FF12F04819C
:104D2A00002309F018C0002713C0082FE1E1F8E0BA
:104D3A000C94F42F00E254DF003034F403C04CDF4B
:104D4A00003014F4689401C0E8940091AC0600F9AC
:104D5A000093AC0602C057D305C000270093AD06E6
:104D6A0002E004D0E4E00C94843001E010E01A93ED
:104D7A000A93442755270CEA16E00C949624E02F50
:104D8A00F12F84818F702091A8062230089531D0A6
:104D9A0069F138D059F520812F7139F02A9539F106
:104DAA002A9549F02A9511F121C0E02FF12F0281AD
:104DBA000130E9F41BC0E02FF12F02810023B1F486
:104DCA008730A0F418D091F0882329F400E20E94D9
:104DDA00902100E202C0082FEBDE02DF0F770E946B
:104DEA009421002713D00E94B02401C00CD38991CA
:104DFA0008958A93C4CF13D033271BD0002908956E
:104E0A00E02FF12F26813781232B0895E82F1ED01A
:104E1A00202D3196C895E22FF02D02830895009136
:104E2A00AA061091AB064EE050E00E943B2F282FB5
:104E3A000895220F331F020F131F0F5A1D4FE02F21
:104E4A00F12FC895002D3196C8950895FF27EE0FCA
:104E5A00FF1FE752FE4FC8950895CBDF49F1D2DF15
:104E6A0039F520812F7139F02A9519F12A9549F0DF
:104E7A002A95F1F01DC0E02FF12F02810130C9F40B
:104E8A0017C0E02FF12F0281002391F4873080F4BC
:104E9A00B2DF71F0882311F4B6D206C0082F0BD006
:104EAA009BDE00680E94942100270E94B02401C062
:104EBA00AAD289910895000F000F0C5D0C949021DD
:104ECA000E94743040D00581002321F0E82F04812C
:104EDA000023A9F5E82FF92F06811781012B79F50F
:104EEA000091A806043059F100810F7139F00A9532
:104EFA0031F10A9521F10A9511F121C000E20E94CF
:104F0A00902100E26DDE00640E949421E82FF92FBF
:104F1A00A28104E00E949021A0680A2F0E94942195
:104F2A00E82FF92F0281002311F402E001C003E007
:104F3A000093A806002711270E94132501C063D2F7
:104F4A00E3E00C948530802F912FE02FF12F089504
:104F5A000E947330402F512FE02FF12F0281112729
:104F6A00E42FF52F2681378160816F7151F06A95A0
:104F7A0009F456C06A9509F453C06A9509F450C0F9
:104F8A004FC0E42FF52F43814A9529F04A9559F0ED
:104F9A004A9599F045C0EFE1F2E0C895802D99272E
:104FAA00AFE1B2E022C0E3E3F2E0C895802D31968A
:104FBA00C895902DA1E3B2E018C0E02FF12F3497E5
:104FCA007CF510306CF1000F111F0B541D4FE02FB0
:104FDA00F12FC895002D3196C895102DE02FF02D90
:104FEA00C895802D9927A02FB12F8217930714F007
:104FFA00822F932F082F192F48E050E00E946F2F1D
:10500A00452B11F0002701C001E00093AC069A93EA
:10501A008A934A2F5B2F002711270E94962401C0EA
:10502A00F2D1E4E00C948430FADE392F02DF102D3D
:10503A00202F202908959A938A93E5D189919991ED
:10504A0008959A938A932091A806223069F1E02F55
:10505A00F12F2381222319F02281222329F5E02F1F
:10506A00F12F2581222319F024812223E9F4E02F4C
:10507A00F12F868197810197B9F400810F7139F078
:10508A000A9591F00A9581F00A9571F00DC0009188
:10509A00A806043021F4E6E3F2E0C89501C0002432
:1050AA000092AC0662DE01C0AED189919991089551
:1050BA009A938A93E02FF12F2581222321F02481CC
:1050CA00222309F058C09CDE09F055C020812F71B7
:1050DA0051F02A9509F44FC02A9509F44CC02A9533
:1050EA0009F449C048C02091A806223009F443C0F7
:1050FA00E02FF12F2281222391F40091A806043097
:10510A00D1F581E090E0E82FF92F36972CF48CDF67
:10511A0009F0EFD00196F7CF03E027C02CC0E02FAB
:10512A00F12F0281E6E3F2E0C895001521F581E04E
:10513A0090E0E82FF92F36972CF476DF09F0D9D0D2
:10514A000196F7CF00270093AA060093AB0688279B
:10515A009927E82FF92F36972CF466DF09F08AD0C1
:10516A000196F7CF0E94C82104E00093A806002701
:10517A000E94B02401C047D18991999108959A93C8
:10518A008A93E02FF12F24813091A8063430F1F46C
:10519A002223E1F42381222319F022812223B1F46C
:1051AA00E02FF12F86819781019781F400810F7199
:1051BA0069F00A9529F00A9549F00A9539F006C06E
:1051CA000091AA060093AC06D0DD01C01CD18991DA
:1051DA00999108950E947330E02FF12F2481A281C2
:1051EA003091A8063430F9F52223E9F523812223E8
:1051FA0019F022812223B9F503DEA9F500810F7186
:10520A0091F10A9529F00A9571F10A9561F12BC07D
:10521A00AA2349F511272091AA063091AB06A217B5
:10522A001307E9F081E090E0E82FF92F36972CF484
:10523A00FBDE09F05ED00196F7CFBB27A093AA0642
:10524A00B093AB0688279927E82FF92F36972CF4C5
:10525A00EBDE09F00FD00196F7CF0E94C821002794
:10526A000E94B02401C0CFD0E4E00C948430E3CE95
:10527A00E2CE08950E947130A02FB12FE02FF12FB6
:10528A003296C895802D8F70482E5524440C551C93
:10529A00E02FF12F028107FBE42DF52D1EF4E951D1
:1052AA00FE4F02C0EB50FE4FCADCEA2FFB2F3396AB
:1052BA00C89501E00016082F19F4FDDD806302C0CD
:1052CA00FADD8061082F0E9494211296EA2FFB2FA3
:1052DA00C89500E0001654F005EF400E01E0501E9C
:1052EA00E42DF52DC895002D0E5F6CDCE6E00C94DC
:1052FA0082309A938A9327DE3296C8950FE000226D
:10530A001124000C111CE82FF12F028107FB26F44F
:10531A0007EE000E01E003C005EF000E01E0101ECB
:10532A00E02DF12D8CDC0296E82FF92FC8950FE0BD
:10533A000022000C000C04E2000E002D48DC8991CA
:10534A00999108959A938A93219700919A061091B8
:10535A009B06802F912F012B09F441C000919E06D4
:10536A00102F0A951123E1F7E82FF92F00810F7109
:10537A0029F00A9531F00A95E9F030C034D0D1F01D
:10538A002DC031D059F10A9519F00A9539F126C084
:10539A00E82FF92F01810E5F39F00A95F9F4082FE9
:1053AA00192FEDEDF2E004C0082F192FEFEDF2E00E
:1053BA0022D015C0082F192FE82FF92F21812F701D
:1053CA00E22FFF27EE0FFF1FE354FD4F14D0E82F03
:1053DA00F92F01810F700093A90601C014D02196FC
:1053EA00899199910895E82FF92F008145E00E944B
:1053FA00362F0B7F0895C895202D3196C895E22F38
:10540A00F02D0995089500E20E94902100E2E8DB60
:10541A0000680E949421E7EEF1E0C895002D0E5F26
:10542A00D1CB8A93802FC4DBDBDB00680E949421F6
:10543A0001E0ECDC89910895E02F08DD002D31961A
:0A544A00C895E02FF02D02810895AF
:100811000000B02607009F26A426A426A426A4260D
:04082100A426B02633
:10021F00120110010000000800040100000101029A
:10022F0003010902200001010080190904000002E6
:10023F000806500007058102400000070502024032
:10024F000000000043024A0200000000000000000E
:10025F000403090418034D004D00200053006F00E4
:10026F00660074007700610072006500200355007E
:10027F00530042002D00490044004500200061005A
:10028F006400610070007400650072001A03300092
:10029F0030003000300030003000300030003000CF
:1002AF003000300030005F0263027B029B02672642
:1002BF00CC263D2932273D296527AD272028262822
:1002CF005D28C428EF283C293D293D293D293B2C99
:0202DF00452CAC
:105454006C812A813B81002411247EEE071672E0C0
:10546400170628F400007FEF071A170AF6CFE02F7B
:10547400F12F40835183428353834881598144836C
:105484005583208731872683378363872D813E8127
:1054940024873587623049F424853585232B19F018
:1054A40022272683278321E01BD0613021F422E0C8
:1054B400E02FF12F2287603159F4E02FF12F24855A
:1054C4003585232B19F022272683278323E008D050
:1054D400683021F424E0E02FF12F228727960895E5
:1054E400E02FF12F228720918006262B209380061F
:1054F4000895082F192F24853585E22FF32F099558
:10550400012B089525D001F12ED002850A93428102
:105514005381068117810E944524E82FF92F468183
:105524005781401B50404683578311273FD0013099
:10553400104054F404851585012B21F0DADF11F0B5
:105544002AD002C001E001C00027899199910895F1
:105554009A938A93802F912FE02FF12F0385109136
:10556400800601230895F894E82FF92F0385009508
:1055740010231093800678940895068117810E9461
:10558400EC231127E82FF92F26813781201B304087
:10559400268337830895E82FF92F00851185068324
:1055A400178300811181028313830895228133813B
:1055B400200F311F22833383068117810895C8DFAA
:1055C400F1F1D1DF04851585012B39F006811781AE
:1055D400012B19F48EDF89F1DEDFE82FF92F028128
:1055E4001381012B89F002850A93002711271A934E
:1055F4000A9342815381C1DFD9DF012B29F4048549
:105604001585012B09F419C0E82FF92F04811581A0
:10561400012BA9F002850A93048115811A930A9338
:1056240044275527AADF24813581200F311F248385
:10563400358306811781012B11F401E001C0002795
:065644008991999108957F
:10564A00EEEAF6E0008111812281338105351345A6
:10565A002244334451F40091BB06023030F40091E5
:10566A00BC06013110F401E0089500270895EEEA1E
:10567A00F6E0652F650F660B00841184228433845B
:10568A00041A150A260A360A0086118622863386E5
:10569A00E5E2F8E00C94F42F00270CC001E00AC000
:1056AA0001E00093DC060093DD0602E003C001E09E
:1056BA000093DC060093BA0605E513E522E433E518
:1056CA00EEEAF6E00083118322833383089511D032
:1056DA000130104034F400270093DE060093DF0601
:1056EA000895EEEDF6E01181015010400083118318
:1056FA0008950091DE061091DF0608950091DC06F8
:10570A00002329F00091D7060E94162A0AC00091A8
:10571A00DD06002331F00091D7060E94162A09E01F
:10572A002AC0EEEAF6E00091D3061091D406212FA2
:10573A00210F220B4085518562857385400F511FC9
:10574A00621F721F4087518762877387042F152F44
:10575A00262F372F0E94002FEEEAF6E000871187E6
:10576A0022873387002711271A930A9302E00A93A4
:10577A000DE004D007E00093DB0608951A930A931C
:10578A0000271A930A934EEA56E00DEC16E00C94A1
:10579A002A2A0DEC16E00E94E12A002308950091BE
:1057AA00DB06EBE4F8E00C94F42F002711270093B2
:1057BA00DE060093DF060093DC060093DD061A93EB
:1057CA000A9301E00A930FE1D9DF01E033C041D027
:1057DA0051F036DF002311F00C947C2C4427552716
:1057EA000EE045DF8BDF08953AD006E00093DB0632
:1057FA0080DF012B19F425D00BE017C02AD009F05D
:10580A007DDF08952CD004E00093DB0672DF012BC4
:10581A0051F0BFDFA9F072CF22D008E00093DB0677
:10582A0068DF012B21F40DD007E021DF67CFB1DF5C
:10583A0039F000270093DB06089500270093DB0662
:10584A00089500270093DB064091D3065091D406B1
:10585A0008950DEC16E00E94842A0023089508EEAC
:10586A0013E00093DE061093DF0608959A938A9355
:10587A0000270093DB060E94B0248991999108952C
:10588A009A938A9321970027088301E010E01A93DC
:10589A000A93442755270C2F1D2F0E5F1F4F0E9476
:0A58AA0096242196899199910895A2
:100825000000612B1000512B512B5A2B5A2B532BA7
:10083500532B512B5A2B5A2B532B5A2B532B512BB2
:100845005A2B552B5C2B0000222C0A00DA2BEC2BA3
:10085500222C072C0B2CF92BFD2B112C152C1E2CC7
:1058B4000093E1061093E20600E012E01A930A93C3
:1058C4004427552700E611E00C94CA300A9300E0FF
:1058D40012E01A930A9311271A930A9340E651E0AF
:1058E4000DEC05C01A930A93442755270DEC16E0D6
:1058F4000C942A2A8A9388270091BD06E5E6F8E0ED
:105904000C94F42F92D023C012D121C055D11FC0C2
:1059140075D11DC074D11BC0EFD019C081D117C07F
:10592400CBD115C0FCD113C032D211C03AD20FC0B2
:1059340039D20DC043D20BC045D209C044D207C0EE
:1059440043D205C042D203C04FD201C04ED2802FF1
:1059540004C0442755270EE006D0082F89910895E6
:10596400482F592F0FE00E943C2B0C94832B29D0F5
:1059740039F00BD00E945C06002311F045D002C020
:1059840000271127899199910895E3EEF6E00081AB
:105994001181228133810F5F1F4F2F4F3F4F39D029
:1059A40001501040204030403A932A931A930A93AE
:1059B4004091E1065091E206E82FF92F0081118110
:1059C40008959A938A93802F912FE7EEF6E0008151
:1059D400118101501040008311830F5F1F4F012B71
:1059E40008951CD04091E7065091E8066627772772
:1059F4000E94B72F00301240204030400895002705
:105A040011271A930A930895E82FF92F0085118519
:105A1400089500831183228333830895EEEAF6E028
:105A24000085118522853385089519D011F4002746
:105A3400089534D011F0D5DF11F00027089509EB53
:105A44001CE21A930A9302E041DF32D0EEEAF6E058
:105A54004085518506E00E943C2B01E00895209189
:105A6400C406322F22270091C5061127200F311FAB
:105A74002093E7063093E806EEEAF6E001891289FE
:105A8400238934890E94002F3F70E3EEF6E0C1DFE2
:105A94000091E7061091E806012B08950091E106B4
:105AA4001091E206012B08950DEC16E00E942A2ABB
:105AB40003E00093DB060895292F290F220BEEEA59
:105AC400F6E0408551856285738548175907089526
:105AD40078DF69F05ADF0E949F06002341F00091AD
:105AE400E7061091E806012B11F08EDF02C00027B3
:105AF4001127899199910895B2DF11F4002708952F
:105B0400CDDF11F06EDF11F0002708950AE61DE2E3
:105B14001A930A9301E0DADE02D00CE09CCF05E090
:105B24000093DB06EEEAF6E0408551850895B6DF82
:105B340069F0E091E106F12F058116812781308516
:105B4400EEEAF6E0048B158B268B08C001E010E02A
:105B540030E0EEEAF6E0048B158B168B378B009160
:105B6400C5060093BE060091C4060093BF060091CB
:105B7400C3060093C0060091C2060093C106002725
:105B84000093C2060093C30602E00093C4060027F4
:105B94000093C50611271A930A9302E00A9308E0BA
:105BA4001A930A9300271A930A934EEB56E07CDF6C
:105BB40048E050E006E04FCF0091C10602950F7017
:105BC400E2EAF8E00C94F42F0091C1060091E0069B
:105BD400037F1091C1061370110F110F012B009355
:105BE400E0060F701091C106107F012B0093E006B0
